:020000040000fa
:080000000001040000000000f3
:020000040000fa
:04000800580200009a
:020000040000fa
:04000c009a02000054
:020000040000fa
:04001000da02000010
:020000040000fa
:04001400780200006e
:020000040000fa
:04001800ba02000028
:020000040000fa
:04001c0034030000a9
:020000040000fa
:0400200034030000a5
:020000040000fa
:0400240034030000a1
:020000040000fa
:04002800340300009d
:020000040000fa
:04002c003403000099
:020000040000fa
:040030003403000095
:020000040000fa
:040034003403000091
:020000040000fa
:04003800340300008d
:020000040000fa
:04003c003403000089
:020000040000fa
:040040003403000085
:020000040000fa
:040044003403000081
:020000040000fa
:04004800340300007d
:020000040000fa
:04004c003403000079
:020000040000fa
:040050003403000075
:020000040000fa
:040054003403000071
:020000040000fa
:04005800340300006d
:020000040000fa
:04005c003403000069
:020000040000fa
:040060003403000065
:020000040000fa
:040064003403000061
:020000040000fa
:04006800340300005d
:020000040000fa
:04006c003403000059
:020000040000fa
:040070003403000055
:020000040000fa
:04007400fa0200008c
:020000040000fa
:04007800340300004d
:020000040000fa
:04007c003403000049
:020000040000fa
:040080003403000045
:020000040000fa
:040084003403000041
:020000040000fa
:04008800340300003d
:020000040000fa
:04008c003403000039
:020000040000fa
:040090003403000035
:020000040000fa
:040094003403000031
:020000040000fa
:04009800340300002d
:020000040000fa
:04009c003403000029
:020000040000fa
:0400a0003403000025
:020000040000fa
:0400a4003403000021
:020000040000fa
:0400a800340300001d
:020000040000fa
:0400ac003403000019
:020000040000fa
:0400b0003403000015
:020000040000fa
:0400b4003403000011
:020000040000fa
:0400b800340300000d
:020000040000fa
:0400bc003403000009
:020000040000fa
:0400c0003403000005
:020000040000fa
:0400c4003403000001
:020000040000fa
:0400c80034030000fd
:020000040000fa
:0400cc0034030000f9
:020000040000fa
:0400d00034030000f5
:020000040000fa
:0400d40034030000f1
:020000040000fa
:0400d80034030000ed
:020000040000fa
:0400dc0034030000e9
:020000040000fa
:0400e00034030000e5
:020000040000fa
:0400e40034030000e1
:020000040000fa
:0400e80034030000dd
:020000040000fa
:0400ec0034030000d9
:020000040000fa
:0400f00034030000d5
:020000040000fa
:0400f40034030000d1
:020000040000fa
:0400f80034030000cd
:020000040000fa
:0400fc0034030000c9
:020000040000fa
:0401000034030000c4
:020000040000fa
:0401040034030000c0
:020000040000fa
:0401080034030000bc
:020000040000fa
:04010c0034030000b8
:020000040000fa
:0401100034030000b4
:020000040000fa
:0401140034030000b0
:020000040000fa
:0401180034030000ac
:020000040000fa
:04011c0034030000a8
:020000040000fa
:0401200034030000a4
:020000040000fa
:0401240034030000a0
:020000040000fa
:04012800340300009c
:020000040000fa
:04012c003403000098
:020000040000fa
:040130003403000094
:020000040000fa
:040134003403000090
:020000040000fa
:04013800340300008c
:020000040000fa
:04013c003403000088
:020000040000fa
:040140003403000084
:020000040000fa
:040144003403000080
:020000040000fa
:04014800340300007c
:020000040000fa
:04014c003403000078
:020000040000fa
:040150003403000074
:020000040000fa
:040154003403000070
:020000040000fa
:04015800340300006c
:020000040000fa
:04015c003403000068
:020000040000fa
:040160003403000064
:020000040000fa
:040164003403000060
:020000040000fa
:04016800340300005c
:020000040000fa
:04016c003403000058
:020000040000fa
:040170003403000054
:020000040000fa
:040174003403000050
:020000040000fa
:04017800340300004c
:020000040000fa
:04017c003403000048
:020000040000fa
:040180003403000044
:020000040000fa
:040184003403000040
:020000040000fa
:04018800340300003c
:020000040000fa
:04018c003403000038
:020000040000fa
:040190003403000034
:020000040000fa
:040194003403000030
:020000040000fa
:04019800340300002c
:020000040000fa
:04019c003403000028
:020000040000fa
:0401a0003403000024
:020000040000fa
:0401a4003403000020
:020000040000fa
:0401a800340300001c
:020000040000fa
:0401ac003403000018
:020000040000fa
:0401b0003403000014
:020000040000fa
:0401b4003403000010
:020000040000fa
:0401b800340300000c
:020000040000fa
:0401bc003403000008
:020000040000fa
:0401c0003403000004
:020000040000fa
:0401c4003403000000
:020000040000fa
:0401c80034030000fc
:020000040000fa
:0401cc0034030000f8
:020000040000fa
:0401d00034030000f4
:020000040000fa
:0401d40034030000f0
:020000040000fa
:0401d80034030000ec
:020000040000fa
:0401dc0034030000e8
:020000040000fa
:0401e00034030000e4
:020000040000fa
:0401e40034030000e0
:020000040000fa
:0401e80034030000dc
:020000040000fa
:0401ec0034030000d8
:020000040000fa
:0401f00034030000d4
:020000040000fa
:0401f40034030000d0
:020000040000fa
:0401f80034030000cc
:020000040000fa
:0401fc0034030000c8
:020000040000fa
:100200002f9720000e7f24000e01880000000000c0
:10021000000020000000e000020032000001200089
:1002200020028800140007003b0107000000e000e6
:1002300003003a000083260001002000020037007e
:100240000000200001002000810f7000010032003a
:1002500014000700000020000000e000020032004f
:100260000000020000000000da6802000000000048
:100270000040da000000fe004440a900400a2000cf
:100280000000e00003003200002020009001880000
:100290004440a800000006008a1f78008b1f7800e9
:1002a00000000600a1028800800478000000eb0036
:1002b0001f003700e284440054a0b4009905ba003e
:1002c000e284440054a0b4009906ba00e2844400d9
:1002d00054a0b4000006eb00476fde00fd07b2003b
:1002e000ae018800636ce10003003a00eaff0700fa
:1002f0000000eb000e003700606ce10008003a00df
:10030000004deb000a05e800020039003420ec0043
:100310000af0a0008b05e900f9ff3e000400370059
:100320006168e100010032000086eb000b0007006d
:1003300019c7ba001905ba000e04e00003003a001c
:100340000a00e000dbff3a0000000600fe07b200f2
:10035000ae0288008a047800f5ff37000cd0a300b5
:10036000e20f4d001c00390089027800354dba00bb
:100370000a05e800020039003420ec000af0a00071
:100380008b05e9000f003200254dba000a05e80090
:10039000020039003420ec000af0a0008b05e900cf
:1003a000080032000c00e0000600320015cdba0053
:1003b0000a05e800020039003420ec000af0a00031
:1003c0008b05e9008984e80054a0b4000b00e0002c
:1003d000e2ff3a00000006009902ba00055d7800cd
:1003e0008b05e900f7ff3200c82ade00055d7800c2
:1003f0008b05e900f3ff32000c00e000f1ff320052
:1004000019ddba00eeff37001c6404000000000094
:10041000946a0400000000007a64040000000000f8
:100420009464040000000000d06404000000000098
:1004300008650400000000004265040000000000a0
:100440004e65040000000000746504000000000018
:1004500058650400000000003e5a0400000000003f
:100460009c5d040000000000ec1a04000000000085
:10047000744d040000000000c84d0400000000009e
:10048000b6080400000000005467040000000000eb
:10049000ce680400000000009e040400000000007c
:1004a0004204040000000000dc030400000000001f
:1004b0003600f800809fbe00829fbe00849fbe0071
:1004c000869fbe000000fa008020a9000000eb001b
:1004d000323407000080fa004f03be004f02be0016
:1004e0004f01be004f00be003600f900004006007c
:1004f0003600f800809fbe00829fbe00849fbe0031
:10050000869fbe000000fa00293407008040a90041
:1005100010002000213407000080fa004f03be00c5
:100520004f02be004f01be004f00be003600f90072
:10053000004006003600f800809fbe00829fbe008b
:10054000849fbe00869fbe000000fa008060a90064
:1005500020002000113407000080fa004f03be0085
:100560004f02be004f01be004f00be003600f90032
:10057000004006003600f800809fbe00829fbe004b
:10058000849fbe00869fbe000000fa008080a90004
:1005900030002000013407000080fa004f03be0045
:1005a0004f02be004f01be004f00be003600f900f2
:1005b000004006003600f800809fbe00829fbe000b
:1005c000849fbe00869fbe000000fa008600a9003e
:1005d00070002000f13307000080fa004f03be00d6
:1005e0004f02be004f01be004f00be003600f900b2
:1005f000004006003600f800809fbe00829fbe00cb
:10060000849fbe00869fbe000000fa005004800058
:10061000680060000000e0000c00320081338000c0
:1006200000002100008060000000e00006003200b1
:10063000704180000000e000020032007041800044
:10064000000001007186a9008a60a9000080fa00fc
:100650004f03be004f02be004f01be004f00be0060
:100660003600f900004006000040da000000fe00fd
:10067000ec8747008e1f78006c87570044002000ed
:10068000041f7800000f78006c87570002afbe008f
:10069000e1bf9f006c805700230107001e00be00d1
:1006a0004f077800cf00b100000006000800fa00f4
:1006b0008e81e80080097800640047000108780016
:1006c000660047000208780066004700100f7800b7
:1006d0000a003700640047001000780010407800de
:1006e000e4004700910078000101e800e4004700c1
:1006f00082087800173207001e0fe9001e007800fc
:100700000000e000f3ff3a006600470010007800a8
:100710000080fa000000060000000500020007004b
:100720000400be00000006006022b800060220009f
:100730000000d0008180d2000482d2008582d200e5
:100740000000a0000202520083825a000300310020
:100750000202420083824a000000a1000603e90071
:10076000f3ff3a0000000600800178000200370025
:10077000b15978000201e9000200e000fcff3a00f4
:1007800000000600b1458000910078009d00070040
:10079000110020000000e00005003500b045800099
:1007a00090007800a0002000da000700cf00de00f3
:1007b0000100ea000000060000000600c08b2000d7
:1007c00000000600fdff0700d0458800c0458800f6
:1007d0000000060080007800040037003104e000cb
:1007e00002003a00000051000000060001017800fc
:1007f0000108a300f9ff3a00810178003101780077
:10080000f4ef2f00020242000281ea0002016200be
:100810000408280004016100f7ff3200830078001b
:10082000010178003104e000fdff3a0000005100b2
:1008300000000600889fbe008a1f780080047800b0
:100840004900900002047800800f54000100360037
:1008500000047800080178006a8544001a007800d6
:10086000c1ff07001a004400000d7800e88444002e
:10087000990c14000048eb004f0578004f04be00af
:10088000000006001000780088ff370090019000fb
:100890000388a30001003200e6ff37000348a300ed
:1008a00001003a00f7ff070000000600889fbe0025
:1008b0008a1f780000047800010578000000eb0032
:1008c0000800e0001a003200180090000058a30051
:1008d0000c003200ea04440068009000990f1000f8
:1008e00008003600b80990000001eb008200780093
:1008f00008007800030001000080eb001900e00010
:100900000b003200740044000008eb006c0044004f
:100910000008eb006a0044000008eb000000eb0058
:100920000a00e0000200320018007800da07070031
:100930004f0578004f04be0000000600889fbe00ef
:100940008a1f78000004be000000eb000800e000f1
:1009500029003200180090000058a3001200320055
:100960006a054400680090009a0f100008003600e5
:10097000b80990000001eb008200780008007800c0
:10098000030001000080eb001a00e0001a003200b2
:10099000740044000008eb006c0044000008eb0009
:1009a0006a0044000008eb00780a900008109000ec
:1009b000800f52000600310000025200110020009a
:1009c000cfa2de00612bb9001800780028ff0700d5
:1009d00000022000080040000008eb007e004400f8
:1009e0000008eb000000eb000900e000020032000c
:1009f00018007800a80707004f0578004f04be00d4
:100a000000000600889fbe008a1f780080047800de
:100a100001057800090078006eff070000047800e7
:100a20008a01780008017800110020000900780090
:100a30000a000700800078000080eb00888f5000db
:100a400001003a000000eb004f0578004f04be00a3
:100a5000000006001000780014ff3700889fbe00d9
:100a60008a9fbe00810478000204780009c5b9009d
:100a70000900e00001003a000004eb000a017800e0
:100a800080007800030078007eff07008000780077
:100a90008a8f500003003200110009008980d800bd
:100aa00000047800080078004f05be004f04be0027
:100ab000000006000200fa00000178000100780042
:100ac000e2ff9f00900090000188a3000600320022
:100ad000ea01400093007800825878000280fb0011
:100ae0008109780009003700120020008f80e9009a
:100af00064ff0700800078000080eb000100e00048
:100b000002003200eff897000180fb000080fa003d
:100b100000000600e7ff37000000060029ff07007d
:100b2000fdff0700fcff370000c0da0000000600f0
:020000040000fa
:100b300000090000121b0000242d0000363f0000b9
:100b4000484100005a5300006c6500007e770000a9
:100b5000191000000b0200003d3400002f26000099
:100b600051580000434a0000757c0000676e000089
:100b7000323b000020290000161f0000040d000079
:100b80007a730000686100005e5700004c45000069
:100b90002b220000393000000f0600001d14000059
:100ba000636a000071780000474e0000555c000049
:100bb000646d0000767f000040490000525b000039
:100bc0002c2500003e370000080100001a13000029
:100bd0007d7400006f660000595000004b42000019
:100be000353c0000272e000011180000030a000009
:100bf000565f0000444d0000727b000060690000f9
:100c00001e1700000c0500003a33000028210000e8
:100c10004f4600005d5400006b62000079700000d8
:100c2000070e0000151c0000232a000031380000c8
:100c300041480000535a0000656c0000777e0000b8
:100c4000090000001b1200002d2400003f360000a8
:100c5000585100004a4300007c7500006e67000098
:100c600010190000020b0000343d0000262f000088
:100c7000737a000061680000575e0000454c000078
:100c80003b320000292000001f1600000d04000068
:100c90006a630000787100004e4700005c55000058
:100ca000222b000030390000060f0000141d000048
:100cb000252c0000373e000001080000131a000038
:100cc0006d6400007f760000494000005b52000028
:100cd0003c3500002e270000181100000a03000018
:100ce000747d0000666f000050590000424b000008
:100cf000171e0000050c0000333a000021280000f8
:100d00005f5600004d4400007b72000069600000e7
:100d10000e0700001c1500002a23000038310000d7
:100d2000464f0000545d0000626b000070790000c7
:020000040000fa
:100d300046610000696c00006564000020740000da
:100d40006f200000696e000069740000696c00008b
:100d5000697a00006520000020570000492d00003e
:100d6000464900002041000054570000494e000051
:100d700043200000447200006976000065720000a4
:100d800020000000574900002d46000049200000c7
:100d90005354000041540000453a00002043000035
:100da0006f6e00006e65000063740000696e0000e5
:100db000672e00002e2e0000005400006f7400000b
:100dc000616c0000706c0000617900002d33000040
:100dd00042340000300000003132000033340000a3
:100de0003536000037380000390000004661000049
:100df000696c000065640000207400006f20000032
:100e000072650000717500006573000074200000b9
:100e1000612000005749000046490000206300009f
:100e20006f6e00006e65000063740000696f000063
:100e30006e200000000000001c640000946a0000a6
:100e40007a64000094640000d0640000086500002b
:100e5000426500004e6500007465000058650000a2
:100e6000200100000f000000000000002001000031
:080e700000000000000000007a
:020000040000fa
:100e78001600fa006a034700004b78006c00470030
:100e8800010878006e0047000248780070004700ab
:100e98000488be0074004700030878007400470007
:100ea800100078000000e000ac0032006a00470043
:100eb800104078000000fb006c00b900800078004a
:100ec8002083200000804000100078000000e0002f
:100ed800a20032006a004700104078000000fb00c2
:100ee8006c00b900000078008080e80020832000b2
:100ef80000804000100078000000e00097003200f9
:100f08006a004700104078000000fb006c00b90040
:100f180000007800e80040002083200000804000a6
:100f280010407800e14f50008c003a0070004700f4
:100f3800301f7800201778006c00470010007800f8
:100f480064004000f40047001108780011c0b300a5
:100f5800660047000148780064004700f400470035
:100f6800110878006a004700104078000000fb0074
:100f78006c00b900000078008080e8002083200021
:100f8800008040009000780064004700100078005e
:100f98008100500068004700010878006800470099
:100fa800100078000000e0000d0034008040eb00e5
:100fb80066004700014878006a0047001040780042
:100fc8000000fb006c00b900000078008080e80099
:100fd80020832000808040006400470011087800ca
:100fe8006a004700104078000000fb006c00b90060
:100ff80080007800208320000080400010007800e6
:10100800e600470011427800e400470091017800ab
:10101800000178001e00be00cd2507000004e00096
:101028004d003a006a004700104078000000fb00bd
:101038006c00b90080007800208320000080400008
:10104800900078006c0047001000780001087800d4
:1010580064004700900078006c004700100078009a
:101068000080e800010878006c0047001000780054
:101078006400400090007800640047001000780089
:10108800808050006c004700100078006400400029
:1010980001087800304080000000e00008003200bd
:1010a800334080006c004700100178006e00470054
:1010b800904078006a004700104078000300010063
:1010c8007400470090007800640047001000780022
:1010d80080805000740047000108780064004700d1
:1010e800100078008000eb001e0f40005e9748005b
:1010f8006a004700104078000000fb006c00b9004f
:1011080000007800e80040002083200000804000b4
:10111800104078000004e0000a003a00740047001c
:10112800100078000000e0000600320014c0b30090
:101138008001eb000001eb006000b8008425070087
:101148000600370074004700100078000000e00037
:101158007eff3a0001003700000000000080fa001e
:1011680000000600d000fa00840c20000e024200a5
:10117800004a7800a00c20000e004000010878000a
:10118800c00c20000e0040000288be00800c200029
:101198000e0040009040780010c4b30080cf50008b
:1011a80006003200800c20000e00400090407800bd
:1011b80040c5b30080cf500019003a0070004700c6
:1011c8000042eb004300200000017800c00c200022
:1011d8000e0040001000be005d2507000004e0007e
:1011e80027023a00710047009040780074004700d9
:1011f80001487800304080000000e0002202320000
:10120800334080007000470010407800f400470029
:101218000101780011c0b300030001002b02370060
:10122800800c20000e0040009040780020c4b300dd
:1012380080cf500019003a00760047000042eb00ca
:101248004300200000017800c00c20000e00400080
:101258001000be003e2507000004e0001b023a0013
:1012680077004700904078007a00470001487800ee
:10127800304080000000e00014023200334080005b
:101288007600470010407800fa0047000101780016
:1012980021c0b300030001000c023700800c2000bd
:1012a8000e0040009040780030c4b30080cf50005a
:1012b80070003a007c0047000042eb00c3002000a9
:1012c80000017800c00c20000e0040001000be0095
:1012d8001f2507000004e000fc013a00500220002e
:1012e8000e004000104078000004e0003f00350088
:1012f800500220000e004000104078008001fb00e2
:10130800400220000e004000104078000000fb0062
:101318006c00b90000007800e8004000208320003d
:10132800008040000000e800104178006c18b90007
:1013380080007800a0832000008040000000e800c2
:1013480002487800500220000e004000104078004b
:101358000000fb006c00b90080007800a08320002a
:101368000080400011c0b3000148780050022000fe
:101378000e004000104078000000fb0061022000d1
:101388008e80400091007800688150006c00b900a0
:1013980080007800808320000080400002087800e8
:1013a800204080000000e8002040880020408000a5
:1013b8000000e00003003a00204080000000e80040
:1013c80020408800500220000e00400010407800a5
:1013d8000000fb00224080006c00b900800078000b
:1013e800608320000080400002087800500220003e
:1013f8000e00400090407800800220000e0040005f
:101408000148780021002000a00220000e004000c2
:10141800010878007e00470090007800c002200094
:101428000e00400001087800000220000e00400075
:101438001000be00e20220000e0141000089be003b
:10144800304080000000e000a001320033408000fe
:10145800400220000e004000104078008102200069
:101468008e8040000101780041c0b30003000100f4
:1014780096013700800c20000e0040009040780054
:1014880040c4b30080cf500006003200800c20001a
:101498000e00400090407800b0c4b30080cf5000e8
:1014a80036003a00a00320000e0040000042eb0086
:1014b8004300200000017800c00c20000e0040000e
:1014c8001000be00a22407000004e00070013a00ea
:1014d800a00320000e00400090407800e0032000a8
:1014e8000e00400001487800b00320000e004000c4
:1014f80090407800f00320000e004000014878007a
:10150800b00320000e004000104078000004e00006
:101518000d003a00a00320000e00400010407800a3
:101528000000fb00c10320008e804000910078007d
:10153800688150006c00b90080007800808320002a
:101548000080400002087800304080000000e00081
:101558005101320033408000a00320000e004000fb
:1015680010407800e10320008e80400001017800df
:1015780051c0b3000300010054013700800c200063
:101588000e00400090407800a0c4b30080cf500007
:1015980018003a00400820000e0040000042eb000e
:1015a8004304200000017800c00c20000e00400019
:1015b8001000be00662407000004e00043013a0062
:1015c800404080000000e0004001320045408000bb
:1015d800400c20000e0040001000be00440820000f
:1015e8000e0242000001be00040078000500010060
:1015f80036013700800c20000e0040009040780033
:1016080060c4b30080cf50000c003200800c200072
:101618000e0040009040780080c4b30080cf500096
:1016280006003200800c20000e0040009040780038
:10163800d0c4b30080cf500095003a0060c0b3001a
:10164800004f7800800c20000e0040009040780089
:1016580080c4b30080cf500002003a0090c0b300ad
:10166800004f78000101200066004700010878005b
:10167800000420000e0040000042eb00e600470096
:101688009101780000017800c00c20000e00400095
:101698001000be002e2407000004e00000013a00fc
:1016a8008000eb0068004700010878006a004700e6
:1016b800c10420008e80400011487800680047006f
:1016c800e10420008e804000110878006a0047007d
:1016d800104078000000fb006c00b9008000780022
:1016e800c0832000008040008040eb000148780063
:1016f8006c004700810420008e80400011087800ab
:101708006e004700a10420008e8040001108780078
:10171800200420000e004000900078008005200082
:101728000e00400001087800400420000e00400030
:101738001000be00a20520000e0141000089be0075
:101748006a004700104078000000fb006c00b900f8
:1017580000007800e4004000208320000080400062
:10176800900078006800470010007800808f5000d3
:101778003a003a006c004700100078000000e000d2
:10178800220034006c00470090007800a00c200074
:101798000e00400010007800808f50001b003100c0
:1017a8006e004700100078008000eb00c20c20009b
:1017b8000e0141001201be00020040008380480073
:1017c800c20c20000e0141000089be0066004700df
:1017d800ec00470011087800000520000e004000ca
:1017e800e600470091017800c10c20008e8040007f
:1017f8001102be001e417800800078006a00470090
:10180800104078009afd0700b0003700200520003e
:101818000e004000ec004700110878008000eb0043
:10182800000520000e0040000108780030408000cc
:101838000000e0009c0032003340800000052000da
:101848000e004000000178009e4078006a004700c2
:1018580010407800030001009c0037006600470034
:1018680090007800a00c20000e00400010007800c6
:10187800808f50008e00310014c0b3008001eb004f
:101888000001eb006000b800b12307008f003700ab
:10189800800c20000e0040009040780050c4b30037
:1018a80080cf50000c003200800c20000e00400059
:1018b8009040780070c4b30080cf5000060032001a
:1018c800800c20000e00400090407800c0c4b30097
:1018d80080cf500042003a0071c0b3000e00e8000b
:1018e80001487800800c20000e00400090407800ed
:1018f80070c4b30080cf500003003a0081c0b30029
:101908000e00e80001487800800620000e00400024
:101918000042eb008300200000017800c00c20008a
:101928000e0040001000be00892307000004e000fc
:1019380061003a008000eb000e80e80001087800a2
:1019480064004700810620008e804000114878001e
:101958000e80e800c10620008e8040001108780043
:10196800a00620000e0040009000780060062000cd
:101978000e0040000108780064004700104078001d
:101988000000fb006c00b90000007800e400400093
:101998002083200000804000900078000e80e8003e
:1019a80010007800808f500045003a0030408000d9
:1019b8000000e00044003200334080006006200050
:1019c8000e004000000178000e00e800904078000a
:1019d8006400470010407800030001003b00370016
:1019e800800c20000e0040009040780020c5b30015
:1019f80080cf500035003a00000720000e0040005c
:101a080014c0b3004301200000017800c00c20007e
:101a18000e0040001000be004d2307000004e00047
:101a28002a003a00400720000e0040001000be00c7
:101a38000000780060408800604080000000e000fe
:101a48002200320065408000000820000e0040009f
:101a580010417800800720000e0040001000be00f2
:101a6800030720008e8141001303be000242780064
:101a78000001be000600be0005000100130037008b
:101a88000000000011003700000000000f003700c0
:101a9800000000000d003700000000000b003700b8
:101aa80000000000090037000000000007003700b0
:101ab80000000000050037000000000003003700a8
:101ac8000000000001003700000000000080fa005c
:101ad800000006000000fa000ac8bf000004e00089
:101ae8000b003a0020832000420820000300200059
:101af8008040eb00862a0700618b200020c0b300dd
:101b08008223070010c0b3000ae8b7000428ef00da
:101b18000080fa00000006000000fa002083200080
:101b280042082000030020008040eb00782a0700cc
:101b38008000eb0020c0b300742307000628ef00e4
:101b48000828ef000a68ef000080fa00000006008d
:101b58000400fa00000f78000e80e8000108780001
:101b68009e007800314088000e80e80090007800e0
:101b7800414088000080fa00000006001000fa00ca
:101b8800ec014700800978006e00470001487800a2
:101b98006f0047000248780000c0eb00004f780053
:101ba8006c00470010007800e20f50009e003a00d9
:101bb8006e00470010407800e14f50002e003a00b8
:101bc8008040eb000e00e80001487800250037004f
:101bd80064004700e18020009140780001487800c7
:101be8000ec8bf000080fb006c00b90080007800c0
:101bf80020832000808040000e80e80001087800e3
:101c08000ec8bf000080fb008000e80070002000c4
:101c180000017800110009008200d8008000fd0052
:101c2800004078000ee8b7000e80e8001000780049
:101c380068004000104078000004e00004003a000a
:101c480064004700104f7800000000004300370090
:101c58000e00e800104078008040e8000e00e80020
:101c6800014878000e00e80010407800e64f500068
:101c7800d7ff3600390037006e0047001040780063
:101c8800e24f500035003a006188200066004700a6
:101c9800010878008040eb000e00e8000148780059
:101ca8002a00370064004700f18020009140780046
:101cb800014878000fc8bf000080fb006c00b90025
:101cc80000007800e600470091007800808040001e
:101cd8000e80e800010878000fc8bf000080fb00f4
:101ce8008000e80030002800008060000000e0006c
:101cf80004003d000000e900c1ff2f0000807000d3
:101d08000000e800004078000fe8b7000e80e80007
:101d18001000780068004000104078000004e000df
:101d280005003a0064004700104078006740400012
:101d3800004f7800090037000e00e80010407800d6
:101d48008040e8000e00e800014878000e00e80036
:101d580010407800e34f5000d2ff36001e40780054
:101d68000004e000300035000e80e8001000780024
:101d7800c2002000030020008040eb00e429070097
:101d88000e80e8001000780011c0b3006800400021
:101d980001487800204080000000e80020408800ca
:101da800204080000000e00003003a00204080004e
:101db8000000e80020408800214080000e80e800f4
:101dc8001000780064004000010878006f004700a8
:101dd800104078000080fb0061006000004078003f
:101de8000004e00010003200680047001e48780038
:101df8000e80e8001000780011c2b30069004000ae
:101e080001487800680047000003eb008002eb00ff
:101e18000002eb00430020000001780001c5b30078
:101e280020c0b300cf1f07001e4078000080fa00d2
:101e3800000006001400fa00ee014700804978000f
:101e480070004700010878007200470002487800d7
:101e5800a0cfb300004f7800700047001000780052
:101e68000000e0004c0032006e004700104078008f
:101e78000004e000480035006e004700104078007c
:101e88000000fb006c00b90000007800e80040008a
:101e9800208320000080400010407800e14f50006f
:101ea8003d003a0072004700104078000004e0004e
:101eb8003900320011c4b3000e00e8000148780070
:101ec8006e004700104078000000fb006c00b9006d
:101ed80000007800e80040002083200000804000d7
:101ee8000000e800104078000080fb0061006000fe
:101ef800004078000004e0000300320041c5b30050
:101f08000e00e800014878006a004700ee0047002c
:101f18001148780070004700900078000e80e800b3
:101f28008200200003002000372907006e004700c8
:101f3800104078000000fb006c00b9000000780039
:101f4800e4004000208320000080400090007800da
:101f58006c004700010878000e80e8000003eb00e1
:101f68008002eb000002eb00c300200000017800b3
:101f78000e00e8009040780020c0b300791f0700e9
:101f8800004f78001e4078000004e0000200320094
:101f980070cfb300004f78001e4078000080fa0030
:101fa800000006000800fa006601470000497800b2
:101fb8006700470001487800a0cfb300004f7800c1
:101fc80066004700104078000004e0002b00350050
:101fd80066004700104078000000fb006c00b90064
:101fe80000007800e80040002083200000804000c6
:101ff80010407800e14f500020003a000e80e800c1
:10200800e60047001148780063004700e7004700f2
:102018001148780066004700104078000000fb0077
:102028006c00b90000007800e40040002083200024
:1020380000804000900078006400470001087800a4
:102048000e80e8000003eb008002eb000002eb00ca
:10205800430020000001780021c4b30020c0b30071
:10206800401f0700004f78001e4078000004e00081
:102078000200320070cfb300004f78001e40780095
:102088000080fa00000006000800fa008e81e800cf
:10209800804978006400470001087800660047001e
:1020a80002087800a0cfb300004f78000e80e80047
:1020b800104078000004e0000d0035000e80e800b4
:1020c800104078000000fb006c00b90000007800a8
:1020d800e800400020832000008040001040780085
:1020e800e14f500002003a000040eb00004f78003a
:1020f8001e4078000080fa00000006001400fa0074
:10210800ee01470080497800700047000108780018
:102118007200470002487800a0cfb300004f780053
:102128006e004700104078000004e00058003500b9
:1021380070004700100078000000e00054003200f2
:102148006e004700104078000000fb006c00b900ea
:1021580000007800e8004000208320000080400054
:1021680010407800e14f500049003a0072004700e3
:10217800104078000004e0004500320041c4b3007c
:102188000e00e800014878006e0047001040780013
:102198000000fb006c00b90000007800e800400077
:1021a80020832000008040000000e80010407800f4
:1021b8000080fb0061006000004078000004e0003f
:1021c8000f003200b1c4b3000e00e80001487800e7
:1021d8006e004700104078000000fb006c00b9005a
:1021e80000007800e80040002083200000804000c4
:1021f8000000e800904078006b0047000148780034
:102208006a004700ee004700114878007000470058
:10221800900078000e80e800820020000300200073
:10222800792807006e004700104078000000fb0086
:102238006c00b90000007800e40040002083200012
:1022480000804000900078006c004700010878008a
:102258000e80e8000003eb008002eb000002eb00b8
:10226800c3002000000178000e00e80090407800cc
:1022780020c0b300bb1e0700004f78001e40780046
:102288000004e0000200320070cfb300004f780075
:102298001e4078000080fa00000006001e00fa00c8
:1022a80076024700004a7800780047000108780065
:1022b8007a004700020878007c004700030878008d
:1022c800a0ff2f00000f780076004700104078002c
:1022d8000004e00065003500780047001000780031
:1022e8000000e000610032007a00470090007800aa
:1022f80080572000808f50005c003e007600470029
:10230800104078000000fb006c00b9000000780065
:10231800e800400020832000008040001040780042
:10232800e14f500051003a0051c4b3006400470027
:1023380001487800010520000e80e80001087800b7
:1023480066004700f600470011487800680047001b
:10235800fa0047001108780076004700104078001e
:102368000000fb006c00b90000007800e4004000a9
:102378002083200000804000900078007200470011
:10238800010878007600470010407800e64f5000ba
:1023980003003400410420000e80e80001087800a2
:1023a80076004700104078000000fb006c00b90080
:1023b80000007800e80040002083200000804000f2
:1023c8000000e800104078000080fb006100600019
:1023d800004078000004e0000d003200c1c4b300e2
:1023e80064004700014878007600470010407800f4
:1023f8000000fb006c00b90000007800e600400017
:1024080020832000808040000e80e80011087800ba
:102418007800470090017800e60047006400470014
:10242800104078000074a0000e81e80012037800c4
:102438007a01470092027800030278000301200025
:10244800010178008040780020c0b300451e0700d5
:102458000000fb00000f78001e0078000000e0007c
:102468000200320020ff2f00000f78001e007800c5
:102478000080fa00000006002000fa0074034700fc
:10248800004b780076004700010878007800470084
:10249800020878007a004700030878007c004700ab
:1024a800040878007e00470005487800a0ff2f0048
:1024b800000f780074004700104078000004e00026
:1024c8006000350076004700100078000000e0004a
:1024d8005c003200780047009000780080572000a8
:1024e800808f500057003e0074004700104078006d
:1024f8000000fb006c00b90000007800e800400014
:10250800208320000080400010407800e14f5000f8
:102518004c003a0074004700104078000000fb00af
:102528006c00b90000007800e8004000208320001b
:1025380000804000104078000004e00041003200b4
:102548006400470002012000030020008040eb00e7
:10255800ef27070064004700f4004700114878009f
:1025680066004700f800470011087800740047002b
:10257800104078000000fb006c00b90000007800f3
:10258800e400400020832000008040009000780094
:1025980070004700010878007c00470010007800b0
:1025a8000000e000140032000e80e800fc00470044
:1025b800110878000e80e80010007800900078007c
:1025c80068004700010878000e80e80010007800d5
:1025d8000080e800900078006a0047000108780051
:1025e8000e80e80010007800640040001000be0073
:1025f8006c0147000089be00760047001001780092
:102608006400470046042000f80047009102780063
:1026180002027800030120000001780071ccb300a9
:1026280020c0b300cf1d07000000fb00000f78009a
:102638001e0078000000e0000200320020ff2f009a
:10264800000f78001e0078000080fa0000000600e5
:102658001600fa00ec014700804978006e00470038
:1026680001087800700047000208780072004700ef
:102678000488be00a0ff2f00000f78006c00470000
:10268800104078000004e0007e0035006e0047002e
:10269800100078000000e0007a0032007000470067
:1026a800100078000000e000760032006c0047005f
:1026b800104078000000fb006c00b90000007800b2
:1026c800e80040002083200000804000104078008f
:1026d800e14f50006b003a000000eb00000f78005b
:1026e8006c004700104078000000fb00ee00470037
:1026f800110178006c00b900800078002083200068
:1027080000804000020878006c0047001040780004
:102718000000fb006c00b9008000780040832000b6
:1027280000804000f0004700110878006c00470066
:10273800104078000000fb006c00b9000000780031
:10274800ea0040002083200000804000104078000c
:102758000004e0004b003a0061c4b3000e80e800ba
:10276800014878006c004700104078000000fb002a
:102778006c00b90080007800c08320000080400011
:1027880011c0b300014878006c0047001040780081
:102798000000fb006c00b90000007800e800400071
:1027a80020832000008040000000e80010407800ee
:1027b8000080fb0061006000004078000004e00039
:1027c80003003200d1c4b3000e80e800014878004d
:1027d800720047001000be00e00f5000e08f580064
:1027e80005003a000080eb008080eb0064014700a0
:1027f8000089be000400370064004700f20047006b
:10280800311878002110780068004700ec00470074
:10281800114878006c004700104078000000fb0069
:102828006c00b90000007800e4004000208320001c
:1028380000804000900078006a0047000108780096
:10284800640047000003eb008002eb000002eb008d
:1028580083002000000178000e80e8009040780096
:1028680020c0b3003f1d07000000fb00000f7800e8
:102878001e0078000000e0000200320020ff2f0058
:10288800000f78001e0078000080fa0000000600a3
:102898000800fa00e600470080487800a0cfb3009f
:1028a800004f780066004700104078000004e00000
:1028b8005b00350066004700104078000000fb0010
:1028c8006c00b90000007800e80040002083200078
:1028d8000080400010407800e14f500050003a005e
:1028e80091c4b3000e00e800014878000e80e800ab
:1028f800e60047001148780066004700104078005d
:102908000000fb006c00b90000007800e400400003
:102918002083200000804000900078006400470079
:102928000108780066004700104078000000fb00ae
:102938006c00b90080007800a0832000008040006f
:102948008040eb000148780066004700104078009e
:102958000000fb006c00b900800078006083200054
:10296800008040008000eb00010878006600470006
:10297800104078000000fb006c00b90000007800ef
:10298800e800400020832000008040000000e800ac
:10299800104078000080fb00610060000040780073
:1029a8000004e00003003200e1c4b3000e00e800b8
:1029b800014878000e80e8000003eb008002eb007d
:1029c8000002eb0043002000000178000e00e80040
:1029d8009040780020c0b300e21c0700004f780048
:1029e8001e4078000004e0000200320070cfb300ff
:1029f800004f7800228320006600470010407800ce
:102a08000000fb006c00b9000000780000004100e5
:102a1800c2002000030020008040eb00bc26070015
:102a28001e4078000080fa00000006001400fa003a
:102a3800ea014700804978006c00470001087800e7
:102a48006e00470002087800700047000488be0046
:102a58000000eb00000f78006a0047001040780083
:102a68000004e000740035006c0047001000780096
:102a78000000e000700032006e004700100078008f
:102a88000000e0006c0032006a0047001040780047
:102a98000000fb006c00b90000007800e80040006e
:102aa800208320000080400010407800e14f500053
:102ab80061003a006a004700104078000000fb00ff
:102ac8006c00b90000007800e80040002083200076
:102ad80000804000104078000004e0005c003200f4
:102ae8000000eb00000f78006a00470010407800f3
:102af8000000fb00ec004700110178006c00b900f1
:102b080080007800208320000080400002087800c0
:102b18006a004700104078000000fb006c00b90014
:102b2800800078004083200000804000ee004700cd
:102b3800110878006a004700104078000000fb0088
:102b48006c00b90000007800ea00400020832000f3
:102b580000804000104078000004e00039003a008e
:102b68006a004700104078000000fb006c00b900c4
:102b780080007800c08320000080400011c0b300ae
:102b880001487800700047001000be00e00f5000b8
:102b9800e08f580005003a000080eb008080eb00d1
:102ba8000e81e8000089be00040037000e80e800ae
:102bb800f0004700311878002110780066004700bf
:102bc800ea004700114878006a0047001040780082
:102bd8000000fb006c00b90000007800e400400031
:102be80020832000008040009000780068004700a3
:102bf800010878000e80e8000003eb008002eb007b
:102c08000002eb00830020000001780081c4b300bb
:102c180020c0b300531c07000000fb00000f780021
:102c28001e0078000000e0000800320020ff2f009e
:102c3800000f780006003700a0ff2f00000f780073
:102c4800030037000000000001003700000000000a
:102c58001e0078000080fa00000006000e00fa004e
:102c6800ec004700800878006000b8006401470065
:102c78000089be000040eb00004f78008040eb0068
:102c88000e00e800014878004e0037008040eb0055
:102c98000e80e800014878006c00470010007800ba
:102ca8009040780063004700014878000e80e800f3
:102cb800104078008040e8000e80e8000148780065
:102cc8000e80e80010407800e44f50000200360003
:102cd8006000b80046003700630047009040780065
:102ce800e0c2b30080cf5000040032006300470008
:102cf800104078000004e00009003a000e00e800e7
:102d0800104078000080fb00000047006800400089
:102d18001e4878000040eb00004f7800160037008e
:102d28006300470090407800f0c2b30080cf5000a5
:102d38000f003600630047009040780090c3b3004e
:102d480080cf50000a003e001e4078006a00b9009b
:102d58000000780080407800630047001040780049
:102d680080c0400000cdb30000cf40000200370013
:102d78006000b8001e0037006c00470010007800a3
:102d88008000e8006c0047000108780063004700f5
:102d980090407800e0c2b30080cf500004003200b9
:102da80063004700104078000004e000baff3a00d2
:102db8000e00e800104078008040e8000e00e800af
:102dc800014878000e00e80010407800e34f5000fa
:102dd800aeff360064004700e800470042002000cc
:102de8000300200088250700640047001000be008b
:102df8000080fa00000006000400fa008e80e80057
:102e080080087800a0cfb300004f78000e80e8005b
:102e180010007800dc2507008e00e8008048780064
:102e28000e00e8009040780000c4b30080cf500046
:102e38000e003e000e00e800104078000080fb0005
:102e48000000e8000003eb008002eb000002eb004a
:102e5800800178000e80e80010017800a1c4b3005a
:102e680020c0b300bf1b0700004f78001e40780049
:102e78000080fa00000006005800fa00240520002f
:102e88000e024200004a7800300520000e00400083
:102e980001487800400520000e0040000208780034
:102ea800600520000e00400003087800a0cfb300a2
:102eb800004f7800200520000e00400010407800e8
:102ec800e64f500017013c00200520000e0040008e
:102ed800104078000000fb006c00b900000078008a
:102ee800e800400020832000008040000000e80047
:102ef800104078000080fb0061006000004078000e
:102f08000004e00007013200300520000e004000f8
:102f180010407800e14f50003b003a004005200087
:102f28000e004000900078000e80e800110878003c
:102f38000e80e800100078000000e0001800320061
:102f4800200520000e004000104078008001fb00a2
:102f5800200520000e004000104078000000fb0013
:102f68006c00b90000007800e800400020832000d1
:102f7800008040000000e800104078000041780020
:102f88000214a0006c18b90080007800a08320000b
:102f9800008040000000e800024878001700370071
:102fa800200520000e004000104078008001fb0042
:102fb800200520000e004000104078000000fb00b3
:102fc8006c00b90000007800e80040002083200071
:102fd800008040000000e8001040780000417800c0
:102fe8000214a1006c18b90080007800a0832000aa
:102ff800008040000000e800024878000040eb0034
:10300800004f7800c7003700300520000e00400050
:1030180010407800e34f50003b003a004005200084
:103028000e00400090007800640047001108780006
:1030380064004700100078000000e000180032002b
:10304800200520000e004000104078008001fb00a1
:10305800200520000e004000104078000000fb0012
:103068006c00b90000007800e800400020832000d0
:10307800008040000000e80010407800004178001f
:103088000244a0006c18b90080007800a0832000da
:10309800008040000000e800024878001700370070
:1030a800200520000e004000104078008001fb0041
:1030b800200520000e004000104078000000fb00b2
:1030c8006c00b90000007800e80040002083200070
:1030d800008040000000e8001040780000417800bf
:1030e8000244a1006c18b90080007800a083200079
:1030f800008040000000e800024878000040eb0033
:10310800004f780087003700300520000e0040008f
:1031180010407800e44f50003b003a004005200082
:103128000e00400090007800660047001108780003
:1031380066004700100078000000e0001800320028
:10314800200520000e004000104078008001fb00a0
:10315800200520000e004000104078000000fb0011
:103168006c00b90000007800e800400020832000cf
:10317800008040000000e80010407800004178001e
:103188000264a0006c18b90080007800a0832000b9
:10319800008040000000e80002487800170037006f
:1031a800200520000e004000104078008001fb0040
:1031b800200520000e004000104078000000fb00b1
:1031c8006c00b90000007800e8004000208320006f
:1031d800008040000000e8001040780000417800be
:1031e8000264a1006c18b90080007800a083200058
:1031f800008040000000e800024878000040eb0032
:10320800004f780047003700300520000e004000ce
:1032180010407800e24f500042003a00600520005c
:103228000e00400090007800f0032000808f5000ce
:103238003c003e0068004700410520008e804000a9
:10324800110878006a004700210520008e804000a0
:1032580011487800200520000e004000104078003a
:103268000000fb006c00b90000007800e40040009a
:103278002083200000804000900078006c00470008
:10328800010878006b004700310520008e8040005f
:1032980011487800600520000e00400010007800fa
:1032a8008000eb006e0147000089be006a004700fd
:1032b800680040000204200003002000e8004700e6
:1032c80091007800502407006a0047000003eb00d3
:1032d8008002eb000002eb0083042000000178006c
:1032e80011c5b30020c0b3009e1a0700e34f400089
:1032f8000a003a006a0047000003eb008002eb0076
:103308000002eb00830420000001780011cdb30017
:1033180020c0b300931a0700004f78000040eb006c
:10332800004f78001e4078000080fa000000060078
:103338001200fa00ea024700804a78006b00470052
:10334800014878006c004700024878006e0047008a
:10335800030878007000470004087800a0cfb30085
:10336800004f78006a004700104078000004e00031
:10337800470035006e004700100078000000e000ac
:10338800430032006a004700104078000000fb004c
:103398006c00b90000007800e8004000208320009d
:1033a8000080400010407800e14f500038003a009b
:1033b8006b00470010407800e24f50000b003a00c5
:1033c80070004700900178006e00470010017800f7
:1033d8006c004700904078006a0047001040780071
:1033e800a5fe0700004f780029003700f1c4b3009c
:1033f8000e00e8000148780067004700ec0047002d
:103408001148780066004700ea0047001148780034
:103418006e004700100078001000be000e81e80022
:103428000089be006a004700104078000000fb00d9
:103438006c00b90000007800e40040002083200000
:10344800008040009000780068004700010878007c
:103458000e80e8000003eb008002eb000002eb00a6
:1034680083002000000178000e00e80090407800fa
:1034780020c0b3003b1a0700004f78001e407800b8
:103488000004e0000200320070cfb300004f780063
:103498001e4078000080fa00000006000800fa00cc
:1034a800004f78000e00e800014878000e80e80020
:1034b8000248780064004700030878006600470067
:1034c800040878000040eb000080fa0000000600c5
:1034d8001600fa006e024700008abe00720047001c
:1034e80002487800740047000308780010cfb30042
:1034f800004f78006e0047001000be00e00f50003b
:10350800e08f58001d00320074004700100078005a
:103518000000e00019003200110020006a00470096
:10352800010878000e80e800ee00470031187800a6
:10353800211078007400470010007800cf80de006a
:10354800660147000089be006c004700f200470092
:10355800114878000e80e8000003eb008002eb00c1
:103568000002eb00c30020000001780021c5b30071
:1035780020c0b300fb190700004f78001e407800f8
:103588000080fa00000006000600fa00e400470088
:103598008008780064004700100078008000eb0085
:1035a800008fbe000e0078000003eb008002eb00e5
:1035b8000002eb00430020000001780051c5b30071
:1035c80020c0b300e71907000080fa0000000600d9
:1035d800a600fa00e40920000e024200004a780022
:1035e800000a20000e00400001087800200a200090
:1035f8000e0040000288be00e00920000e004000d6
:1036080090407800c0c2b30080cf500013003a0049
:10361800680047000042eb004300200000017800ea
:10362800200a20000e0040001000be00481c0700c1
:103638000004e00057013a00e04080000000e0008c
:1036480054013200e24080006800470080007800a2
:10365800c0c2b300020001004e013700e00920009b
:103668000e00400010407800fb4f500013003a0055
:103678006c0047000042eb00830020000001780046
:10368800200a20000e0040001000be00301c070079
:103698000004e0003f013a00e04080000000e00044
:1036a8003c013200e24080006c0047008000780056
:1036b800b0c1b3000200010036013700e009200064
:1036c8000e00400010407800e64f500015003a0008
:1036d800a00320000e00400014c0b3000303200024
:1036e80000017800200a20000e0040001000be00f3
:1036f800171c07000004e00026013a00e0408000a3
:103708000000e00023013200e2408000a003200016
:103718000e0040008000780060c0b3000200010085
:103728001c013700e00920000e004000104078001e
:10373800ee4f500017013200e00920000e00400053
:103748009040780020c3b30080cf500013003a00a7
:10375800740047000042eb0043012000000178009c
:10376800200a20000e0040001000be00f81b0700d1
:103778000004e00007013a00e04080000000e0009b
:1037880004013200e24080007400470080007800a5
:1037980020c3b30002000100fe003700e00920004a
:1037a8000e00400090407800f0c2b30080cf500077
:1037b8001b003a00a00320000e0040004206200033
:1037c800030020008040eb0051230700a0032000e5
:1037d8000e0040000042eb00430620000001780084
:1037e800200a20000e0040001000be00d81b070071
:1037f8000004e000e7003a00e04080000000e0003c
:10380800e4003200e2408000a00320000e004000e7
:1038180080007800f0c2b30002000100dd0037002c
:10382800e00920000e0040009040780040c3b3003b
:1038380080cf500013003a00800220000e004000a4
:103848000042eb004300200000017800200a20001d
:103858000e0040001000be00bd1b07000004e00081
:10386800cc003a00e04080000000e000c9003200cf
:10387800e24080008000eb0040c3b300020001007a
:10388800c4003700e00920000e0040001040780016
:10389800f14f50001a003a001b68ef00c0022000e8
:1038a8000e0040000042eb004300200000017800b9
:1038b800200a20000e0040001000be00a41b0700d4
:1038c8000004e000b3003a00c00220000e004000ef
:1038d800104078001ae8b700e04080000000e000df
:1038e800ac003200e2408000c00220000e00400020
:1038f8008000780010c1b30002000100a500370065
:10390800e00920000e00400010407800f34f5000fe
:1039180015003a00a00320000e0040000042eb0012
:10392800c302200000017800200a20000e00400099
:103938001000be00861b07000004e00095003a0056
:10394800e04080000000e00092003200e240800089
:10395800a00320000e0040008000780030c1b300b2
:10396800020001008b003700e00920000e00400033
:1039780010407800e44f500011003a000042eb007c
:10398800430020000e017800200a20000e004000ad
:103998001000be006e1b07000004e0007d003a0026
:1039a800e04080000000e0007a003200e240800041
:1039b8008e00780040c0b300020001007500370097
:1039c800e00920000e0040009040780050c6b30087
:1039d80080cf500011003a000042eb004300200065
:1039e8000e017800200a20000e0040001000be00e2
:1039f800571b07000004e00066003a00e040800022
:103a08000000e00063003200e24080008e00780091
:103a180050c6b300020001005e003700e009200034
:103a28000e00400010407800e94f500015003a00a1
:103a3800a00320000e00400014c0b300430620007d
:103a480000017800200a20000e0040001000be008f
:103a58003f1b07000004e0004e003a00e0408000f1
:103a68000000e0004b003200e2408000a00320008c
:103a78000e0040008000780090c0b30002000100f2
:103a880044003700e00920000e0040009040780014
:103a9800a0c2b30080cf500015003a0000032000f8
:103aa8000e00400014c0b30043002000000178005d
:103ab800200a20000e0040001000be00241b070052
:103ac8000004e00033003a00e04080000000e0001d
:103ad80030003200e2408000000320000e00400069
:103ae80080007800a0c2b30002000100290037005e
:103af800e00920000e0040009040780000c2b300aa
:103b080080cf500023003a00400320000e00400000
:103b18000042eb006300200000017800200a20002a
:103b28000e0040001000be00091b07000004e00062
:103b380018003a00600320000e0040009001780051
:103b4800400320000e00400010017800200a2000e9
:103b58000e0040001000be0066004000e0804800f3
:103b680014c0b300fa1a07000004e00009003a0084
:103b7800e04080000000e00006003200e2408000e3
:103b8800400320000e0040008000780000c2b3000f
:103b9800020001000080fa00000006000200fa009e
:103ba8000040eb00004f7800a21d0700004f78008e
:103bb8001e4078000004e00002003a00ea12070004
:103bc80001003700000000001e4078000080fa0065
:103bd800000006000400fa008e80e80080087800e3
:103be8000040eb00004f78000e80e80010007800dd
:103bf8000000e00003003a0040cfb300004f780017
:103c0800890037000e80e800100078005e22070067
:103c18000000e000060032000e80e8001000780086
:103c28005922070001022000810f500003003600ce
:103c380040cfb300004f78007b0037000e80e800cb
:103c4800100078001002b00010407800ee4f5000cd
:103c580006003e000e80e800100078001002b00058
:103c6800104078000004e00003003a0040cfb300a1
:103c7800004f78006c0037000e80e80010007800d4
:103c88001004b000104078000004e0000f003a0073
:103c98000e80e800100078002004b0001040780082
:103ca8000004e00009003a000e80e80010007800e7
:103cb8003004b000104078000004e00003003a002f
:103cc80040cfb300004f7800570037000e80e8005f
:103cd80010007800f003b00010407800e14f500069
:103ce800500032000e80e80010007800f003b000a9
:103cf80010407800e34f50002d003a000e80e80095
:103d0800100078002002b000104078000004e000a5
:103d1800060032000e80e800100078002002b00093
:103d280010407800e44f50000300360040cfb30045
:103d3800004f78003c0037000e80e8001000780043
:103d48003002b00010407800ea4f500009003200fd
:103d58000e80e800100078003002b00010407800b3
:103d6800fa4f50000300320040cfb300004f7800f4
:103d78002d0037000e80e800100078004002b000e7
:103d8800012207000000e000060032000e80e80073
:103d9800100078004002b000fb210700fa0f500025
:103da8002100360040cfb300004f78001e003700d6
:103db8000e80e80010007800f003b0001040780092
:103dc800e24f500014003a000e80e800100078001e
:103dd8003002b000104078000080fb000000e800ce
:103de800e80f5000090034000e80e8001000780049
:103df8003002b000104078000080fb008000e8002e
:103e080010042000808f50000700340040cfb3001a
:103e1800004f78000400370040cfb300004f78000f
:103e280001003700000000001e4078000080fa0002
:103e3800000006000400fa008e80e8008008780080
:103e48000040eb00004f78000e80e800100078007a
:103e58000000e00003003a0040cfb300004f7800b4
:103e6800350037000e80e800100078001040780018
:103e78000004e00003003a0040cfb300004f780090
:103e88002d0037000e80e800100078000000e800e0
:103e980010407800e94f5000060036000e80e80018
:103ea800100078000000e80010407800e64f40005d
:103eb8000300360040cfb300004f78001e003700e3
:103ec8000e80e800100078000080e80010407800bc
:103ed8000004e000060032000e80e80010007800c0
:103ee8000080e80010407800e24f500003003600e0
:103ef80040cfb300004f78000f0037000e80e80075
:103f0800100078006300400090407800d0c9b300ea
:103f180080cf5000060035000e80e80010007800c1
:103f280063004000104078000004e0000200350003
:103f380040cfb300004f78001e4078000080fa00a0
:103f4800000006000400fa008e80e800800878006f
:103f580040cfb300004f78000e80e80010007800d2
:103f68000003eb00c52a2000000278008001eb0066
:103f78000001eb0031c8b30050c0b3007917070047
:103f8800004f78001e4078000080fa00000006000c
:103f98002c00fa00a10220008e80400080087800e2
:103fa8000040eb00004f780011c0b30080022000f1
:103fb8000e00400001487800a00220000e004000da
:103fc800100078000000e00003003a0040cfb30082
:103fd800004f78001f003700a00220000e004000ac
:103fe8001000780010007800e04088001b68ef009f
:103ff800800220000e004000b61c0700004f780029
:104008001e4078000004e00011003a000000eb00b8
:1040180036170700004f78001e4078000004e000c3
:1040280007003a00c1ae210010c0b300371a0700dc
:104038000e80e800161b0700004f780005003700c7
:10404800000000000000eb00ed1c07000100370035
:10405800000000001e4078000080fa000000060002
:104068000200fa00000f78000000eb002e1707008e
:104078000000eb00e21c07000040eb000080fa00a3
:10408800000006000200fa00000f780098190700e7
:104098000080fa00000006000000fa000003eb00b0
:1040a8008002eb000002eb008001eb000001eb0056
:1040b80091c2b30010c0b3002a1707000080fa00ad
:1040c800000006000800fa00000f78000e80e800e3
:1040d8000148780063004700024878006400470000
:1040e8000308780066004700040878008042eb0067
:1040f80066004700100278006400470090017800cd
:1041080063004700104178000e80e8009040780076
:104118001e007800020007000080fa000000060078
:104128008200fa00860720000e034300000b780087
:10413800a00720000e00400001487800b0072000ca
:104148000e00400002487800c00720000e00400022
:1041580003087800e00720000e00400004087800fb
:10416800000820000e004000054878000040eb00e1
:10417800004f7800b00720000e0040001040780083
:10418800e14f500065003200c00720000e004000db
:10419800100078000000e00003003a0040cfb300b0
:1041a800004f780042013700b00720000e004000a1
:1041b80010407800e24f500058003a00c007200035
:1041c8000e00400010007800ef20070001042000d6
:1041d800810f500051003a008040eb000e00e800cb
:1041e800014878000e80e800c10720008e8040005a
:1041f80011087800440037000e00e80010407800ed
:104208000080fb008e80e80091007800008040006c
:1042180090407800f0c2b30080cf500032003600e2
:104228000e00e800104078000080fb008e80e80057
:1042380091007800008040009040780090c3b3005f
:1042480080cf50000a0036000e00e80010407800c9
:104258000080fb008e80e80091007800008040001c
:104268009040780000c4b30080cf50001e00360094
:104278000e00e800104078000080fb008e80e80007
:1042880091007800008040009040780060c4b3003e
:1042980080cf50000a0036000e00e8001040780079
:1042a8000080fb008e80e8009100780000804000cc
:1042b8009040780000c6b30080cf50000a00360056
:1042c8000e00e800104078000080fb008e80e800b7
:1042d80091007800008040009040780060c6b300ec
:1042e80080cf50000300360040cfb300004f780065
:1042f800ef0037000e00e800104078008040e8002a
:104308000e00e800014878000e00e80090407800b0
:10431800f0c3b30080cf5000b7ff3600a0072000dd
:104328000e004000104078000004e0000600320053
:10433800a00720000e0040009040780000c2b300a3
:1043480080cf50000300360040cfb300004f780004
:10435800d7003700e00720000e004000100078006a
:104368000000e00005003200e00720000e004000d9
:1043780010007800ee0f500009003600e00720001a
:104388000e00400090007800f00f2000808f500051
:104398000300320040cfb300004f7800c40037005c
:1043a800a00720000e004000104078000080fb00ad
:1043b8008000eb00820720000e0141009202780085
:1043c8006c01470064042000020242000001be00a4
:1043d80085007800040078000b200700a007200063
:1043e8000e004000104078000080fb0000004700ed
:1043f8008040eb002005b00001487800000520004f
:104408000e004000e10720008e804000110878006f
:10441800000820000e004000104078000080fb00db
:104428000000ea004f00de008040780030072000de
:104438000e00400001487800ec0047006400470087
:104448000108780064004700100078001004b000ec
:10445800b10720008e80400011487800b007200086
:104468000e00400010407800e34f50004a003a0028
:1044780066004700c10720008e80400011087800c0
:1044880068004700e400470011087800660047000c
:1044980010007800104078000040e900e80047006c
:1044a8009100780080487800680047001000780084
:1044b80010407800e34f50000300360040cfb300af
:1044c800004f78007a003700660047001000780037
:1044d8000000e800104078008040e90068004700cc
:1044e800100078000000e8000148780068004700e4
:1044f800100078000000e80010407800ea4f5000f3
:104508000900320068004700100078000000e80049
:1045180010407800fa4f50000300320040cfb3003b
:10452800004f7800620037006600470010007800ee
:104538000000e800104078000080fb008000eb00dd
:1045480066014700120178008282e800680147008e
:10455800120178000282e8000001be0085007800a0
:1045680004007800a81f07006600470010007800c4
:104578000000e800104078000080fb00e8004700d9
:1045880091007800008040008040eb000080e80047
:10459800014878003c003700b00720000e004000ba
:1045a80010407800e24f500021003a00c007200078
:1045b8000e00400010007800f31f0700800078000c
:1045c8006a004700010878006a0047001000780078
:1045d8000000e000050032006a0047009000780003
:1045e80000042000808f50000300360040cfb30045
:1045f800004f78002e0037006a004700100078004e
:104608000000e8008000eb00c20720000e01410016
:104618009202780064014700120278000001be008f
:104628008500780004007800771f0700160037001f
:10463800b00720000e00400010407800e44f500002
:1046480009003a00c00720000e00400090007800e2
:104658006400470010007800e203200003002000f7
:10466800691f070008003700b00720000e0040004f
:1046780010407800e14f50000300320040cfb300f3
:10468800004f78000a0037006c0047000003eb0079
:104698008002eb000002eb00c30620000001780056
:1046a80081c2b30010c0b300ae150700004f7800f8
:1046b8001e4078000080fa00000006000000fa00a2
:1046c8000003eb008002eb000002eb008001eb002e
:1046d8000001eb00b1c2b30010c0b300a115070080
:1046e8000080fa00000006000a00fa00e80047000f
:1046f800800878006200200003002000680047005e
:10470800900078000e0078003f1f07000003eb00c0
:104718008002eb000002eb00830020000e0178000d
:1047280021c0b30010c0b3008e1507000080fa0046
:10473800000006000200fa00000f78001e00780052
:10474800680040001000be001e01780068014100aa
:104758000089be001e007800640040001000be0002
:104768001e017800640141000089be001e00780027
:104778001000be001e0178000089be001e007800ef
:104788006c0040001000be001e0178006c01410062
:104798000089be001e0078000003eb008002eb00d9
:1047a8000002eb004301200000017800a1c0b30023
:1047b80020c0b3006b1507000080fa000000060057
:1047c8000000fa000040eb000080fa00000006003c
:1047d8000200fa00000f78000040eb000080fa00a9
:1047e800000006000400fa008e80e8008048780087
:1047f8000e80e800104078000004e000020032005b
:10480800b0c0b30001003700c0c0b300004f78004b
:104818000003eb008002eb000002eb008001eb00dc
:104828000001eb009e40780020c0b3004d15070042
:104838000080fa00000006000200fa00000f78006d
:104848001e0078000003eb008002eb000002eb0082
:10485800430020000001780091c3b30010c0b300ea
:10486800401507000080fa00000006000400fa0066
:104878008e80e8008008780040cfb300004f7800b1
:104888000e80e800100078000000e00017003200f9
:104898000e80e80010007800104078000080fb00cf
:1048a8008000e800b00f2000808f50000f003c000f
:1048b8000e80e80010007800104078000080fb00af
:1048c8000000e8000003eb008002eb000002eb00b0
:1048d800800178000e80e80010017800f1c8b3006c
:1048e80010c0b3001f150700004f78001e40780065
:1048f8000080fa00000006000400fa008e80e8003c
:104908008008780040cfb300004f78000e80e800a0
:104918001000780047fd07000004e0000b003a0093
:104928000e80e800100078000003eb008002eb0026
:104938000002eb00430020000001780041c1b300f1
:1049480010c0b30007150700004f78001e4078001c
:104958000080fa00000006000800fa00e6004700a0
:104968008008780040cfb300004f78000e80e80040
:10497800e6004700110878000e80e8000003eb000d
:104988008002eb000002eb004300200000017800e9
:1049980051c1b30010c0b300f2140700004f7800f3
:1049a8001e4078000080fa00000006000800fa00a7
:1049b800e6004700804878000040eb00004f780090
:1049c8001bc8bf000004e00022003a006600470050
:1049d800104078000004e000040032006600470040
:1049e80010407800ee4f5000040036006600470083
:1049f80010407800e14f400013003a000e80e800b4
:104a0800e6004700114878000e80e8000003eb003c
:104a18008002eb000002eb00430020000001780058
:104a280001c1b30010c0b300ce140700004f7800d6
:104a38001e4078000004e00009003a0010c0b300ee
:104a48001be8b7000700370010cfb300004f78000d
:104a58000400370020cfb300004f78000100370072
:104a6800000000001e4078000080fa0000000600e8
:104a78000a00fa006601470000497800680047000c
:104a8800010878000040eb00004f78001bc8bf0009
:104a98000004e00025003a00660047001040780056
:104aa8000004e0000400320066004700104078006f
:104ab800ee4f5000040036006600470010407800b2
:104ac800e14f400016003a000e80e800e60047007b
:104ad8001148780064004700e80047001108780092
:104ae8000e80e8000003eb008002eb000002eb0000
:104af800430020000001780031c2b30010c0b300a9
:104b080098140700004f78001e4078000004e00069
:104b180009003a0010c0b3001be8b70007003700cf
:104b280010cfb300004f78000400370020cfb30047
:104b3800004f780001003700000000001e40780098
:104b48000080fa00000006000e00fa006a01470023
:104b5800004978006c0047000108780010cfb300c6
:104b6800004f78001bc8bf000004e00058003a005e
:104b78006a004700104078000004e000040032009a
:104b88006a00470010407800ee4f500004003600dd
:104b98006a00470010407800e14f400050003a009a
:104ba8006c004700100078000000e0004c00320064
:104bb8008000eb000e80e800010878006c004700d8
:104bc800900078000e80e800100078008080400097
:104bd80064004700114878006400470010407800de
:104be800e44f50003e003e000e80e80010007800c0
:104bf8008000e8000e80e800010878001b003700fc
:104c08006c004700900078000e80e80010007800e3
:104c1800008040009040780000c2b30080cf500070
:104c28002e003e006c004700900078000e80e800df
:104c38001000780000804000104078000080fb00e1
:104c48008e80e80091007800010040008000e800b4
:104c58000e80e800010878006400470010407800e2
:104c68008040e9006400470001487800640047007c
:104c7800104078000004e000e1ff3a0066004700b9
:104c8800ea00470011487800660047004600200007
:104c98008e80e80091027800ec004700110278004d
:104ca800430020000001780011cab30010c0b3000f
:104cb8002c140700004f78001e4078000004e00024
:104cc80007003a0010c0b3001be8b7000400370023
:104cd80020cfb300004f780001003700000000002b
:104ce8001e4078000080fa00000006001000fa005c
:104cf8006c014700004978006e0047000108780001
:104d08001b68ef006c004700104f78006c004700ec
:104d1800104078000004e00006003a006e004700ea
:104d2800900078000e00e8008200200003002000b8
:104d3800b51d07000003eb008002eb000002eb004a
:104d4800c30020000e017800f1c2b30010c0b30008
:104d5800041407000080fa00000006000200fa00b0
:104d68000040eb00004f78000003eb008002eb00ee
:104d78000002eb008001eb000001eb0011c3b3005f
:104d880010c0b300f7130700004f78001e407800ea
:104d98000080fa00000006000400fa008e80e80097
:104da800804878000040eb00004f78001e407800f3
:104db8000080fa00000006000400fa008e80e80077
:104dc800804878000040eb00004f78001e407800d3
:104dd8000080fa00000006000800fa00e60047001c
:104de800804878000040eb00004f780066004700dc
:104df80010407800e14f500008003200660047007c
:104e080010407800e64f500004003200660047006a
:104e180010407800eb4f50000e003a000e00e800fa
:104e2800e6004700114878000e00e8000003eb0098
:104e38008002eb000002eb00430020000001780034
:104e4800b1c5b30010c0b300c6130700004f780007
:104e58000200370040cfb300004f78001e407800b2
:104e68000080fa00000006000200fa000040eb0093
:104e7800004f78000003eb008002eb000002eb001b
:104e88008001eb000001eb00c1c5b30010c0b30006
:104e9800b4130700004f78001e4078000080fa0025
:104ea800000006000400fa008e80e8008008780000
:104eb80040cfb300004f78000e80e8001000780063
:104ec80044fb07000004e0000b003a000e80e800f5
:104ed800100078000003eb008002eb000002eb00fa
:104ee800830820000001780061c4b30010c0b3003b
:104ef8009c130700004f78001e4078000080fa00dd
:104f0800000006000400fa008e80e800800878009f
:104f180040cfb300004f78000e80e8001000780002
:104f28000000e0000b0032000e80e800100078005e
:104f38000003eb008002eb000002eb0043002000be
:104f48000001780021c2b30010c0b3008513070028
:104f5800004f78001e4078000080fa00000006002c
:104f68000200fa000040eb00004f78000003eb005d
:104f78008002eb000002eb008001eb000001eb0077
:104f880071c4b30010c0b30076130700004f780057
:104f98001e4078000080fa00000006000200fa00b7
:104fa8000040eb00004f78000003eb008002eb00ac
:104fb8000002eb008001eb000001eb0031c0b30000
:104fc80010c0b30067130700004f78001e40780038
:104fd8000080fa00000006000a00fa006601470097
:104fe80000097800680047000108780000c0eb005d
:104ff800004f780066004700100078000000e000cd
:105008001600320068004700100078000000e00039
:10501800120032000e80e800e8004700110878000e
:10502800e100200064004700010878000e80e800d5
:10503800a6012000e800470091027800e60047003a
:10504800110278004300200000017800c1c9b300b4
:1050580010c0b30043130700004f78001e407800cb
:105068000080fa00000006000600fa000e81e80041
:105078000009780064004700010878000040eb0050
:10508800004f7800c8120700004f78001e407800d3
:105098000004e0000b003a0064004700900078002c
:1050a8000e80e80010007800cf110700004f78004c
:1050b8001e4078000004e00002003a00f2120700e7
:1050c800004f78001e4078000080fa0000000600bb
:1050d8000400fa008e80e800800878000040eb00a9
:1050e800004f7800b0120700004f78001e4078008b
:1050f8000004e00009003a000e80e8001000780083
:1051080028120700004f78001e4078000004e000d5
:1051180002003a00dc120700004f78001e407800b9
:105128000080fa00000006000800fa00e6004700c8
:10513800804878000040eb00004f78000e00e8003f
:10514800e6004700114878000e00e8000003eb0075
:105158008002eb000002eb00430020000001780011
:1051680021c1b30010c0b300fe120700004f780041
:105178001e4078000080fa00000006000000fa00d7
:105188001ac8bf000080fa00000006000000fa00fc
:10519800ab1207000080fa00000006000800fa00c1
:1051a8006601470000497800670047000148780019
:1051b8000040eb00004f78000e00e800e6004700d2
:1051c800114878000e80e800e70047001148780091
:1051d8000e00e8000003eb008002eb000002eb0089
:1051e8004300200000017800d1c2b30010c0b30012
:1051f800dc120700004f7800660047001040780076
:10520800891207001e4078000080fa00000006009e
:105218000a00fa00660147000089be000040eb0062
:10522800004f7800861207008e00e800804878005a
:105238000e00e80010407800e44f50000e003a00dd
:105248000e80e800e6004700311878002110780049
:105258000e80e8000003eb008002eb000002eb0088
:105268004300200000017800a1c3b30010c0b300c0
:10527800bc120700004f78001e4078000080fa003a
:10528800000006003400fa00020320000e0141006d
:1052980000097800200320000e0040000148780033
:1052a800200320000e00400090407800f0c2b300b8
:1052b80080cf50000400360001c3b3002003200053
:1052c8000e00400001487800200320000e00400036
:1052d800104078008040e800200320000e004000c5
:1052e80001487800200320000e004000104078009c
:1052f8000080fb008000eb000001be0000032000de
:105308000e004000900078000e0078003e1c070058
:105318000003eb008002eb000002eb000303200017
:105328000e01780071c0b30010c0b3008d120700e1
:105338000080fa00000006000400fa008e80e800f1
:10534800800878000040eb00004f78001612070034
:10535800004f78001e4078000004e00005003a0085
:105368000e80e8001000780049160700004f78000a
:10537800451207001e4078000080fa000000060071
:10538800d400fa00e30c20008e81410080097800e7
:10539800000d20000e00400001087800200d2000bc
:1053a8000e0040000248780040cfb300004f78005c
:1053b800e00c20000e004000100078000000e00023
:1053c80030003200e00c20000e0040001000780091
:1053d80000fa07000004e0002a003a00e00c200070
:1053e8000e004000900078000e00e80082082000bf
:1053f80003002000041c0700000d20000e004000e0
:1054080010007800601c07000000e0001d0032005a
:10541800000d20000e004000100078000000e000a1
:1054280018003200000d20000e00400090007800a7
:105438000e00e8008008b0000204200003002000ed
:10544800f11b0700900c20000e004000210d2000e9
:105458008e804000114878001b68ef000e00e800bd
:105468000003eb008002eb000002eb00c30c2000fd
:105478000001780081c8b30010c0b30039120700da
:10548800004f78001e4078000080fa0000000600f7
:105498000000fa000003eb008002eb000002eb00c2
:1054a8008001eb000001eb00a1c0b30010c0b30005
:1054b8002c1207000080fa00000006000000fa0025
:1054c8000003eb008002eb000002eb008001eb0020
:1054d8000001eb0051c0b30010c0b3002112070057
:1054e8000080fa00000006000400fa00008fbe00e9
:1054f8000e0078000003eb008002eb000002eb00d6
:105508008300200000017800b1c0b30010c0b300d0
:10551800141207000080fa00000006000000fa00dc
:105528000003eb008002eb000002eb008001eb00bf
:105538000001eb00a1c1b30010c0b30009120700bd
:105548000080fa00000006000400fa008e80e800df
:10555800804878000e80e800104078000004e000e1
:1055680002003200c0c0b30001003700d0c0b30051
:10557800004f78000003eb008002eb000002eb0014
:105588008001eb000001eb009e40780010c0b300e2
:10559800f41107000080fa00000006000800fa0075
:1055a800e6004700804878000040eb00004f780094
:1055b8000e00e800e6004700114878000e00e800f9
:1055c8000003eb008002eb000002eb004300200028
:1055d8000001780061c1b30010c0b300e1110700f9
:1055e800004f78001e4078000080fa000000060096
:1055f8000800fa00e6004700804878000040eb0009
:10560800004f78000e00e800e600470011487800d7
:105618000e00e8000003eb008002eb000002eb0044
:10562800430020000001780071c1b30010c0b3002e
:10563800cc110700004f78001e4078000080fa0067
