:020000040000fa
:080000000001040000000000f3
:020000040000fa
:040008005c02000096
:020000040000fa
:04000c009e02000050
:020000040000fa
:04001000de0200000c
:020000040000fa
:040014007c0200006a
:020000040000fa
:04001800be02000024
:020000040000fa
:04001c0038030000a5
:020000040000fa
:0400200038030000a1
:020000040000fa
:04002400380300009d
:020000040000fa
:040028003803000099
:020000040000fa
:04002c003803000095
:020000040000fa
:040030003803000091
:020000040000fa
:04003400380300008d
:020000040000fa
:040038003803000089
:020000040000fa
:04003c003803000085
:020000040000fa
:040040003803000081
:020000040000fa
:04004400380300007d
:020000040000fa
:040048003803000079
:020000040000fa
:04004c003803000075
:020000040000fa
:040050003803000071
:020000040000fa
:04005400380300006d
:020000040000fa
:040058003803000069
:020000040000fa
:04005c003803000065
:020000040000fa
:040060003803000061
:020000040000fa
:04006400380300005d
:020000040000fa
:040068003803000059
:020000040000fa
:04006c003803000055
:020000040000fa
:040070003803000051
:020000040000fa
:04007400fe02000088
:020000040000fa
:040078003803000049
:020000040000fa
:04007c003803000045
:020000040000fa
:040080003803000041
:020000040000fa
:04008400380300003d
:020000040000fa
:040088003803000039
:020000040000fa
:04008c003803000035
:020000040000fa
:040090003803000031
:020000040000fa
:04009400380300002d
:020000040000fa
:040098003803000029
:020000040000fa
:04009c003803000025
:020000040000fa
:0400a0003803000021
:020000040000fa
:0400a400380300001d
:020000040000fa
:0400a8003803000019
:020000040000fa
:0400ac003803000015
:020000040000fa
:0400b0003803000011
:020000040000fa
:0400b400380300000d
:020000040000fa
:0400b8003803000009
:020000040000fa
:0400bc003803000005
:020000040000fa
:0400c0003803000001
:020000040000fa
:0400c40038030000fd
:020000040000fa
:0400c80038030000f9
:020000040000fa
:0400cc0038030000f5
:020000040000fa
:0400d00038030000f1
:020000040000fa
:0400d40038030000ed
:020000040000fa
:0400d80038030000e9
:020000040000fa
:0400dc0038030000e5
:020000040000fa
:0400e00038030000e1
:020000040000fa
:0400e40038030000dd
:020000040000fa
:0400e80038030000d9
:020000040000fa
:0400ec0038030000d5
:020000040000fa
:0400f00038030000d1
:020000040000fa
:0400f40038030000cd
:020000040000fa
:0400f80038030000c9
:020000040000fa
:0400fc0038030000c5
:020000040000fa
:0401000038030000c0
:020000040000fa
:0401040038030000bc
:020000040000fa
:0401080038030000b8
:020000040000fa
:04010c0038030000b4
:020000040000fa
:0401100038030000b0
:020000040000fa
:0401140038030000ac
:020000040000fa
:0401180038030000a8
:020000040000fa
:04011c0038030000a4
:020000040000fa
:0401200038030000a0
:020000040000fa
:04012400380300009c
:020000040000fa
:040128003803000098
:020000040000fa
:04012c003803000094
:020000040000fa
:040130003803000090
:020000040000fa
:04013400380300008c
:020000040000fa
:040138003803000088
:020000040000fa
:04013c003803000084
:020000040000fa
:040140003803000080
:020000040000fa
:04014400380300007c
:020000040000fa
:040148003803000078
:020000040000fa
:04014c003803000074
:020000040000fa
:040150003803000070
:020000040000fa
:04015400380300006c
:020000040000fa
:040158003803000068
:020000040000fa
:04015c003803000064
:020000040000fa
:040160003803000060
:020000040000fa
:04016400380300005c
:020000040000fa
:040168003803000058
:020000040000fa
:04016c003803000054
:020000040000fa
:040170003803000050
:020000040000fa
:04017400380300004c
:020000040000fa
:040178003803000048
:020000040000fa
:04017c003803000044
:020000040000fa
:040180003803000040
:020000040000fa
:04018400380300003c
:020000040000fa
:040188003803000038
:020000040000fa
:04018c003803000034
:020000040000fa
:040190003803000030
:020000040000fa
:04019400380300002c
:020000040000fa
:040198003803000028
:020000040000fa
:04019c003803000024
:020000040000fa
:0401a0003803000020
:020000040000fa
:0401a400380300001c
:020000040000fa
:0401a8003803000018
:020000040000fa
:0401ac003803000014
:020000040000fa
:0401b0003803000010
:020000040000fa
:0401b400380300000c
:020000040000fa
:0401b8003803000008
:020000040000fa
:0401bc003803000004
:020000040000fa
:0401c0003803000000
:020000040000fa
:0401c40038030000fc
:020000040000fa
:0401c80038030000f8
:020000040000fa
:0401cc0038030000f4
:020000040000fa
:0401d00038030000f0
:020000040000fa
:0401d40038030000ec
:020000040000fa
:0401d80038030000e8
:020000040000fa
:0401dc0038030000e4
:020000040000fa
:0401e00038030000e0
:020000040000fa
:0401e40038030000dc
:020000040000fa
:0401e80038030000d8
:020000040000fa
:0401ec0038030000d4
:020000040000fa
:0401f00038030000d0
:020000040000fa
:0401f40038030000cc
:020000040000fa
:0401f80038030000c8
:020000040000fa
:0401fc0038030000c4
:020000040000fa
:100200006f9f20000e7f24000e0188000000000078
:10021000000020000000e000020032000001200089
:1002200020028800140007003d0107000000e000e4
:1002300003003a00808a27000100200002003700f6
:100240000000200001002000810f7000010032003a
:1002500014000700000020000000e000020032004f
:100260000000020000000000926e0200000000008a
:100270000040da000000fe004440a9008030200069
:100280000000e00003003200002020009001880000
:100290004440a800000006008a1f78008b1f7800e9
:1002a00000000600a1028800800478000000eb0036
:1002b0001f003700e284440054a0b4009905ba003e
:1002c000e284440054a0b4009906ba00e2844400d9
:1002d00054a0b4000006eb00476fde00fd07b2003b
:1002e000ae018800636ce10003003a00eaff0700fa
:1002f0000000eb000e003700606ce10008003a00df
:10030000004deb000a05e800020039003420ec0043
:100310000af0a0008b05e900f9ff3e000400370059
:100320006168e100010032000086eb000b0007006d
:1003300019c7ba001905ba000e04e00003003a001c
:100340000a00e000dbff3a0000000600fe07b200f2
:10035000ae0288008a047800f5ff37000cd0a300b5
:10036000e20f4d001c00390089027800354dba00bb
:100370000a05e800020039003420ec000af0a00071
:100380008b05e9000f003200254dba000a05e80090
:10039000020039003420ec000af0a0008b05e900cf
:1003a000080032000c00e0000600320015cdba0053
:1003b0000a05e800020039003420ec000af0a00031
:1003c0008b05e9008984e80054a0b4000b00e0002c
:1003d000e2ff3a00000006009902ba00055d7800cd
:1003e0008b05e900f7ff3200c82ade00055d7800c2
:1003f0008b05e900f3ff32000c00e000f1ff320052
:1004000019ddba00eeff3700087604000000000096
:10041000387c040000000000667604000000000044
:100420008076040000000000bc760400000000009c
:10043000f4760400000000002e77040000000000a5
:100440003a7704000000000060770400000000001c
:1004500044770400000000008a69040000000000e6
:10046000886f040000000000382a0400000000002b
:10047000c05c040000000000145d040000000000e7
:1004800002180400000000002c7a040000000000a4
:10049000ac6d040000000000e86c040000000000e7
:1004a000a204040000000000460404000000000054
:1004b000e0030400000000003600f800809fbe004a
:1004c000829fbe00849fbe00869fbe000000fa008f
:1004d0008020a9000000eb00023d07000080fa0028
:1004e0004f03be004f02be004f01be004f00be00d2
:1004f0003600f900004006003600f800809fbe007c
:10050000829fbe00849fbe00869fbe000000fa004e
:10051000f93c07008040a90010002000f13c0700d2
:100520000080fa004f03be004f02be004f01be0024
:100530004f00be003600f900004006003600f8000b
:10054000809fbe00829fbe00849fbe00869fbe002b
:100550000000fa008060a90020002000e13c0700b4
:100560000080fa004f03be004f02be004f01be00e4
:100570004f00be003600f900004006003600f800cb
:10058000809fbe00829fbe00849fbe00869fbe00eb
:100590000000fa008080a90030002000d13c070054
:1005a0000080fa004f03be004f02be004f01be00a4
:1005b0004f00be003600f900004006003600f8008b
:1005c000809fbe00829fbe00849fbe00869fbe00ab
:1005d0000000fa008600a90070002000c13c07005e
:1005e0000080fa004f03be004f02be004f01be0064
:1005f0004f00be003600f900004006003600f8004b
:10060000809fbe00829fbe00849fbe00869fbe006a
:100610000000fa0050048000680060000000e00064
:100620000c00320081338000000021000080600057
:100630000000e00006003200704180000000e00091
:100640000200320070418000000001007186a900a4
:100650008a60a9000080fa004f03be004f02be006e
:100660004f01be004f00be003600f90000400600fa
:100670000040da000000fe00ec8747008e1f780083
:100680006c87570044002000041f7800000f78009a
:100690006c87570002afbe00e1bf9f006c8057001f
:1006a0008a0607001e00be004f077800cf00b10089
:1006b000000006000800fa008e81e800800978003a
:1006c00064004700010878006600470002087800cf
:1006d00066004700100f78000a00370064004700ea
:1006e0001000780010407800e40047009100780086
:1006f0000101e800e400470082087800813b070020
:100700001e0fe9001e0078000000e000f3ff3a0031
:1007100066004700100078000080fa000000060024
:1007200000000500020007000400be0000000600f3
:100730006022b800060220000000d0008180d200b4
:100740000482d2008582d2000000a0000202520082
:1007500083825a00030031000202420083824a0071
:100760000000a1000603e900f3ff3a0000000600c4
:100770008001780002003700b15978000201e900d9
:100780000200e000fcff3a00000006003149800052
:10079000910078009d000700110020000000e0009b
:1007a000050035003049800090007800a00020004e
:1007b000da000700cf00de000100ea0000000600ba
:1007c00000000600c092200000000600fdff0700a8
:1007d00050498800404988000000060080007800e9
:1007e000040037003104e00002003a00000051002c
:1007f00000000600010178000108a300f9ff3a009b
:100800008101780031017800f4ef2f0002024200ec
:100810000281ea000201620004082800040161006c
:10082000f7ff320083007800010178003104e00016
:10083000fdff3a000000510000000600889fbe0046
:100840008a1f780080047800490090000204780034
:10085000800f540001003600000478000801780081
:100860006a8544001a007800c1ff07001a0044009e
:10087000000d7800e8844400990c14000048eb0057
:100880004f0578004f04be000000060010007800fd
:1008900088ff3700900190000388a3000100320018
:1008a000e6ff37000348a30001003a00f7ff070006
:1008b00000000600889fbe008a1f780000047800b0
:1008c000010578000000eb000800e0001a0032008b
:1008d000180090000058a3000c003200ea04440005
:1008e00068009000990f100008003600b8099000c9
:1008f0000001eb008200780008007800030001008e
:100900000080eb001900e0000b003200740044008e
:100910000008eb006c0044000008eb006a00440093
:100920000008eb000000eb000a00e00002003200cb
:10093000180078007e0f07004f0578004f04be00b6
:1009400000000600889fbe008a1f78000004be00d9
:100950000000eb000800e0002900320018009000c1
:100960000058a300120032006a054400680090009d
:100970009a0f100008003600b80990000001eb0043
:100980008200780008007800030001000080eb007e
:100990001a00e0001a003200740044000008eb0066
:1009a0006c0044000008eb006a0044000008eb0003
:1009b000780a900008109000800f52000600310065
:1009c0000002520011002000cfa2de00612bb9000e
:1009d0001800780028ff07000002200008004000ef
:1009e0000008eb007e0044000008eb000000eb0074
:1009f0000900e00002003200180078004c0f0700e8
:100a00004f0578004f04be0000000600889fbe001e
:100a10008a1f7800800478000105780009007800ba
:100a20006eff0700000478008a0178000801780052
:100a300011002000090078000a00070080007800fb
:100a40000080eb00888f500001003a000000eb00ae
:100a50004f0578004f04be0000000600100078002b
:100a600014ff3700889fbe008a9fbe008104780073
:100a70000204780009c5b9000900e00001003a004d
:100a80000004eb000a017800800078000300780081
:100a90007eff0700800078008a8f5000030032003c
:100aa000110009008980d80000047800080078004f
:100ab0004f05be004f04be00000006000200fa0011
:100ac0000001780001007800e2ff9f009000900094
:100ad0000188a30006003200ea014000930078007c
:100ae000825878000280fb008109780009003700f5
:100af000120020008f80e90064ff0700800078006a
:100b00000080eb000100e00002003200eff89700e7
:100b10000180fb000080fa0000000600e7ff3700bc
:100b20000000fa00cfb89700688157003049800074
:100b300010007800df0107000080fa0000000600c6
:100b4000040007005c000700900007000b0107008d
:100b500033013700ec874700889fbe008a9fbe00a4
:100b60008c9fbe008e1f780000067800010478007c
:100b7000180790002805900098067800cdb79f00d0
:100b8000b80590003202be002203be000400be0081
:100b90000601be004f18de006011b8008000eb00b7
:100ba000d0b79f00e1b79f00f2b79f0083bf9f00bf
:100bb000800478000900e000060032006000b80000
:100bc0006011b800040250008582580006035900e5
:100bd000878359000e00e000020035000d10a100cf
:100be000cdb79f000900e00005003a004fb0970024
:100bf0000028a30002003a000038a30002003200df
:100c00008a00e900010037008a007800f881570067
:100c1000a200200008007800860007000900e0001c
:100c200003003a00cfb097000128a300080032006b
:100c30000000e90000814500b1c2b3000900e000f6
:100c400001003200d1c2b30001497800050037002d
:100c50000138a300030032000000e90001c2b30024
:100c600081757800480190000201e90000015100ff
:100c7000808045004fb297008a0178000c00780010
:100c8000ae0107009c0090000188a3000400320020
:100c900098009000810f500001003d000100780095
:100ca0004f0778004f06be004f05be004f04be0040
:100cb000cf00b100000006000200fa00889fbe00cd
:100cc0008a9fbe00000578000104780002007800c9
:100cd00018019000a805900098007800b1bf9f000f
:100ce000b80490000200e000020035000110a100ed
:100cf000b1bf9f00ea815700820020008b0078007e
:100d00003002be002003be00080078004900070042
:100d10003fb99700f0006100030032000000e900d5
:100d200001c3b300817478003fb99700e800610007
:100d3000030032000000e90001c2b30081747800b2
:100d4000480190000201e900000151008080440048
:100d50003fba97008b0178000a00780077010700fe
:100d60009a0090000188a3000400320098009000cf
:100d7000810f500001003d00010078004f05be00ca
:100d80004f04be000080fa0000000600ea8747001a
:100d9000889fbe008a9fbe008e1f780000047800e6
:100da000030078007287570084e2260055c72600aa
:100db000049fbe00c3962200030f78006c87570083
:100dc000004feb0011059000a10490009105780000
:100dd0000200e00002003200020778000100370044
:100de000728757000000e00002003a000e00780011
:100df0007afe07000a00e000030035008a0f500069
:100e0000010036000a0078000b02780089017800a2
:100e1000000178008e007800080078004701070084
:100e20004f0778004f05be004f04be00af00b10071
:100e300000000600f4874700889fbe008a9fbe001e
:100e40008c9fbe008e1f78000605be000404be0005
:100e500081bf9f0082b79f00f3b79f00b000900052
:100e6000e1b79f001301780092b79f0090069000b1
:100e7000400690000c06e9000d00e00001003d0076
:100e80001d002000efb197000c8041000048eb00ee
:100e90001e0020001f0037000c06e9000fb097006d
:100ea000cf80de006109b900a0b79f00b1b79f00f5
:100eb000c2b79f00d3b79f000203be000002be006e
:100ec0000800be000a01be002b05070000077800dd
:100ed000efb097000c80400003c3b3000348470005
:100ee0008d06e9000fb897000000e90080bf9f0061
:100ef0002fb29700bfb297004fb39700dfb39700b0
:100f00000800be000a01be00140507000205be006d
:100f10000004be000c00e0000d003200e00f5400a1
:100f2000e08f5c00e00f5d00e08f5d00daff3a00cb
:100f30000d00e000d8ff3c008fb897000100e000f2
:100f4000030034001fb197000218a300d2ff3a003b
:100f50000e00e00002003a00ffb197001340a1002c
:100f60000c0078004f0778004f06be004f05be000a
:100f70004f04be004f01b100000006000200fa005d
:100f8000889fbe008a9fbe0080047800010478001c
:100f90000200780018019000280590009800780061
:100fa000b1bf9f00b80590000200e00002003500cc
:100fb0000110a100b1bf9f00ea815700a2002000ec
:100fc0008a0078003002be002003be0008007800ce
:100fd00098ff0700480190000201e900000151005c
:100fe000808045003fba97008a01780009007800a8
:100ff000d2000700990090000188a300040032008d
:1010000098009000810f500001003d000100780021
:101010004f05be004f04be000080fa00000006002d
:10102000fa874700889fbe008a9fbe008c9fbe0043
:101030008e1f780080047800010478008205780013
:10104000180190002805900018077800b80090005b
:101050000200e000020035000e10a1000100370080
:101060001200200070006700e0b79f000900320006
:101070003b02be002b03be00e00f5200e08f5a007f
:10108000e00f5b00e08f5b00020032008a86e9001f
:10109000010037008a067800e8026700f5b79f0074
:1010a000010032008d06e9003b02be002b03be00aa
:1010b000e4af9f00f5af9f0086b79f0097b79f00f2
:1010c000480690000c06e9000c8040000048eb0048
:1010d000efb297007fb2970089037800810478000f
:1010e000d8af9f00020478008bbf9f008a0578006c
:1010f000034578002a0037000c06e9006fab970023
:101100006f006300e90f500002003c000003b000d4
:10111000010037007005b0000a03fb001604b1009f
:10112000f90f53000c003e00000378000650a000a9
:101130001606b100f90f530007003e00b4b79f0038
:10114000a5b79f00c7b79f00e9020700cfb397007c
:10115000afb297003fb2970080747e000804e900a8
:101160008d06e9006fa89700ffa897000fb19700c0
:101170009fb19700460020008301d1000281d30077
:101180008180d3000080d3000603e900faff3a0013
:10119000e0af9f00f1af9f0082b79f0093b79f0021
:1011a000e10f56000f0036006fa89700ffa89700c8
:1011b0000fb197009fb19700e00f5000e08f5800eb
:1011c000e00f5900e08f5900cbff3a000800e00023
:1011d000c9ff3c000d00e000020034000e18a3001f
:1011e000c5ff3a0089007800f4b79f0087047800b3
:1011f0005fac97008a4178000b0578008fbd97009f
:101200000500e000100032003b02be002b03be00d0
:10121000e4af9f00f5af9f0086b79f0097b79f0090
:10122000e00f5200e08f5a00e00f5b00e08f5b00a0
:10123000050032000c06e90083707e000c06e90010
:1012400000c3b30080707e00ffb297000500e0008d
:10125000030032000c06e90000c2b30080707e007b
:10126000480190000201e9000c0151008c8040000f
:101270000e0278008a017800090078002f0007002c
:10128000990090000188a3000400320098009000ab
:10129000810f500001003d00010078004f077800e9
:1012a0004f06be004f05be004f04be00af01b100a7
:1012b000000006000200fa00881f78000004780091
:1012c000e2bf9f006481570008007800ce0107004c
:1012d000980090000148a300010032000080eb005c
:1012e0004f0478000080fa0000000600889fbe00ce
:1012f0008a1f78008004780049009000020478007a
:10130000800f5400010036000004780008017800c6
:101310006a8544001a00780015fd07001a00440091
:10132000000d7800e8844400990c14000048eb009c
:101330004f0578004f04be0000000600f28747000a
:10134000889fbe008a9fbe008c9fbe008e1f7800c3
:101350008004780001057800020478008305780095
:101360006107620002003a008b0f54000800390048
:10137000080178008a0078000900780045fd070020
:101380008b0f540002003900880578001e003700da
:10139000088655000c017800f00f56000100360059
:1013a00002012000010220007e805700b6010700e4
:1013b0008c0678000500370002012000fe805700ef
:1013c0000900780033fd0700f0865600ef8f5600c5
:1013d000f9ff3e004461de0000ff2f000091b900dc
:1013e00002014600fe8057000900780029fd070031
:1013f0000e00e00004003a00080178008a0078003e
:101400000900780023fd07000b0078004f077800e3
:101410004f06be004f05be004f04be002f01b100b5
:1014200000000600000005000000050000000500a7
:10143000000178000040eb008080fb0081804000cc
:10144000039c200063c278000404e00003003a001b
:10145000109c200060c07800000006009201780017
:10146000934f520004003a00109c200060c07800a6
:101470000309e800010037000040e800ea4f50008f
:10148000edff360000000600f6874700889fbe008b
:101490008a9fbe008c9fbe008e1f7800800478005b
:1014a0000104780083057800040678000000eb0052
:1014b000c0b79f008080eb00d1b79f00e0b79f00ce
:1014c000f2b79f000008200080bf9f0098007800be
:1014d000010078000005eb00010037000a05e80074
:1014e000304178000204e0000300320053c2b30030
:1014f000834f5100f9ff3a000a00e0000400320077
:101500000a01780009007800e2fc0700180c450089
:101510001807780050c2b3009e4f100033013a0004
:101520000e07e8000e0c780010003700cfb09700cf
:101530000100a0000b003700cfb097000110a00001
:1015400008003700cfb097000120a0000500370049
:10155000cfb097000130a00002003700cfb0970055
:101560000140a000c1b79f00000ce80018007800ff
:1015700090407800b2c2b30082cf5000f1ff320039
:1015800007003c0002c2b30082cf5000f0ff3200df
:1015900032c2b30082cf500007003a00efff37009d
:1015a000d2c2b30082cf5000e0ff320002c3b300ca
:1015b00082cf5000e0ff3200a2c2b30082cf5000c1
:1015c0000d003a00000ce8001c80e900000e7800d5
:1015d00010007800e0b79f000000e0000f003d0021
:1015e000cfb097000100a200c1b79f000000ea0041
:1015f000e0b79f000900370090010700e0b79f00a7
:1016000001003700000ce800180078009000fb0093
:101610000103b100e98f5000faff36004fb0970088
:101620000008a300020032000010a100c0b79f0014
:1016300018007800e1c2b30090cf100016003a0005
:101640008000eb00d1b79f000000e800000c78009c
:10165000a1c2b30090cf100006003a00000ce800d1
:101660001c80e900000e780010007800d0b79f00c1
:101670000900370071010700d0b79f000100370053
:10168000000ce800180078009000fb000103b10096
:10169000e98f5000faff36000800780064ff070069
:1016a00080467800180078001000fb0089010700d0
:1016b00091062000810f50003800320012003c00db
:1016c00041062000810f5000340032000a003c0027
:1016d00011062000810f500020003200310620004a
:1016e000810f50009a00320051022000810f5000fb
:1016f000ae003a00a700370071062000810f5000ad
:10170000aa003c008200370001072000810f500032
:101710005c00320007003c00e1062000810f500011
:1017200074003200f1062000810f50009f003a0043
:101730003900370051072000810f50002700320088
:1017400081072000810f5000420032003107200045
:10175000810f500095003a00850037008d80fb0016
:101760000c01780000fe2f000f0040006701070009
:101770000000e0009c00320018007800000ce80037
:101780009041780002fe2f000f014100f8805700c1
:101790000900780024ff07000e0037008d80fb0051
:1017a0008c0178001200200000fe2f000f00400086
:1017b000750107000000e0008b003200180ce80003
:1017c00002fe2f000f014100f88057000900780049
:1017d000e0fc070000054500840037008d80fb0019
:1017e0008c0178000001eb0000fe2f000f0040008c
:1017f000650107000000e0007b003200180ce800e3
:1018000002fe2f000f014100f88057000900780008
:10181000dafd0700efff37008d80fb008c017800b8
:101820000001eb0000fe2f000f00400056010700f2
:101830000000e0006c003200180ce80002fe2f00ef
:101840000f014100f8805700090078001afd0700d9
:10185000e0ff37008d80fb008c0178000001eb0079
:1018600000fe2f000f004000470107000000e000cd
:101870005d00320018007800000ce800904178000c
:10188000160037008c0178000001eb00010f2000ea
:1018900000fe2f000f0040003b0107000000e000a9
:1018a00051003200180ce8000fb097009fb097006d
:1018b0002fb19700bfb19700e00f5000e08f5800a4
:1018c000e00f5900e08f590003003a008001eb005f
:1018d000a29b20004000370083c7b30002fe2f0008
:1018e0000f014100f880570009007800ccfd070087
:1018f000b8ff37000b0145008d80fb008c0178009c
:1019000000fe2f000f00400078010700360037006e
:101910008d80fb000c01780000fe2f000f004000be
:10192000fa0007000000e0002f00320018007800e5
:10193000000ce8009041780002fe2f000f014100ea
:10194000f880570009007800b7fe0700a1ff3700b4
:1019500000c8b30080cf560023003a00180ce800fe
:101960001c80e900000e7800104078000d00370060
:1019700000c8b30080cf56001b003a00180ce800e6
:101980001c80e900000e78008001eb001001780057
:101990001100370001c8b30081cf560012003a0091
:1019a000180ce800e0df9f000800370050c2b300c9
:1019b000e0df9f000e0c78000000eb00c0b79f0036
:1019c000e0b79f008080eb00d1b79f00130020009c
:1019d000e2fd2f000f014100f88057000900780058
:1019e000eafc07007bff3700180ce8000a007800cb
:1019f0004f0778004f06be004f05be004f04be00e3
:101a00006f01b100000006008200fa00889fbe004e
:101a10008a1f78000005780082047800c13f9f008b
:101a20000004eb00100037000902780088017800fc
:101a3000a2f72f000f01410081f72f008f80400097
:101a40000a00780090fe070008004000880f500050
:101a500004003d00b0042000a04f88000084eb008b
:101a600004003700000478004f3897001004e000ad
:101a7000edff3a00080078004f0578004f04be00e3
:101a80000080fa0000000600889fbe008a9fbe000a
:101a9000800478000200e0005a0032000140780023
:101aa000814c780082814400f1f99f00e20f5100df
:101ab0005400360091449800a1449800e1f99f0039
:101ac000d1f99f00e60f51004e003600b144980056
:101ad000c1f99f00e80f51004a0036000905ea00ed
:101ae000630565000a8444000a055100c1ff2f0008
:101af000010565000080fb008000eb001210200053
:101b0000131020006b010700008cbe000a01440086
:101b100060b99f0071b99f00e80f55003900360089
:101b20002004980031049800400498005104980063
:101b300020b99f0031b99f0040b99f0051b99f0063
:101b4000f80f55002f0036006004980071049800cb
:101b5000000c9800110c9800200c9800310c980093
:101b6000400c9800510c980020b19f0031b19f00ab
:101b700040b19f0051b19f0060b19f0071b19f00c3
:101b800000b99f0011b99f00640164007801410011
:101b900002044400020555006011b8000203be00b3
:101ba0000002be000403be006022b8000000720004
:101bb0008180720002017300838173000f0037007f
:101bc00008027800009abe00029abe00009abe0089
:101bd0000292be00000c9800110c9800220c980094
:101be000330c9800400c9800510c9800620c98003f
:101bf000730c98000a02b1000802b000ff0f5500f4
:101c0000efff3e00090078004f05be004f04be0004
:101c10000000060080007800100020000202200072
:101c2000828f500004003200e9805000e48f5000a1
:101c3000010036000000eb0000000600889fbe0097
:101c40008a1f7800800478000904780088047800ee
:101c5000394578000a00fb00eeff07000000e000b5
:101c6000f9ff3a00b0c2b300804f550005003200c2
:101c7000d0c2b3008000eb00804f550005003a0051
:101c8000020037008000eb00010037001100200047
:101c90000804e8000000eb00030037006a02b90006
:101ca000020052000003b0003801fb0003fd2f00ca
:101cb00082814100e98f5100f8ff36000100e00009
:101cc00001003a000000ea004f0578004f04be0012
:101cd00000000600f1fb2f0080804000f98f5000cb
:101ce00001003e000050a00000000600f9ff370090
:101cf000f1f92f0080804000f98f500001003e0074
:101d0000f005b20000000600f9ff3700881f7800d8
:101d10000004780000082000808f50001700350074
:101d200010082000808f50000b0034003008200085
:101d3000808f500011003a009200780068805000b7
:101d4000000978003002be002003be00049cbe00e3
:101d50000694be00070037009202780064805200ab
:101d6000000978001000be009e000700009cbe0025
:101d70000294be0010002000010037000000eb00bc
:101d80004f0478000000060084082000848f500073
:101d90001d0032000d003c0014082000848f50000c
:101da0002700320002003c00040820000400370035
:101db00024082000848f50002a00320044082000ac
:101dc000848f500048003a003b003700040a20008e
:101dd000848f50002c00320004003c0004092000d5
:101de000848f500040003a002d003700020c200084
:101df000828f50001e003200020f2000828f5000a0
:101e000039003a00300037009380e9000200e0001a
:101e100005003200810978001102fb00cfa2de002c
:101e2000612bb9002d00370081097800114278003c
:101e30000482fb008002eb006033b800270037000b
:101e400013027800e40052000200e0000a003200b1
:101e5000810978001102be004fabde0086037800d6
:101e60001e00370093027800e88052000e00370011
:101e700093027800e4805200810978001102be00cc
:101e80006033b800150037009380e90081097800bd
:101e900011027800cfa2de00612bb9000f003700dd
:101ea00013037800e8005300810978003102be0076
:101eb0002103be00090037009380e9000200e00022
:101ec00002003200f1ff37009380e90081097800b9
:101ed000110278008002eb006033b8000498be0065
:101ee0000690be0010000500000005004408200018
:101ef000848f5000270032000a003c0014082000a4
:101f0000848f50001c00320024082000848f500071
:101f10002600320004082000848f50002c003a0074
:101f20001c00370004092000848f50001f0032007d
:101f300004003c0084082000848f500024003a00f4
:101f400007003700040a2000848f5000110032007f
:101f5000040c2000848f50001d003a00060037005a
:101f60009380e900810978009100780001087800e9
:101f700082487800150037009380e90081097800d5
:101f80009100780001087800cf91de008288be00c1
:101f90000e0037009380e9008109780091007800f5
:101fa0000108780082087800080037009380e90073
:101fb0008109780091007800010878006112b90069
:101fc000612bb9008498be008690be001000050009
:101fd0000000050000000600fcf90700fdff0700f7
:101fe000fcff3700810378001d0007000001be00e0
:101ff0006000b8000478a30013003a006220e100fa
:1020000015003e000d0039008301d1000281d3008c
:102010008180d3008301d1000281d3008180d3006d
:102020008301d1000281d3008180d3000538b00044
:10203000c42add00f300b2008381720007f0a7001c
:1020400003f0a0000000060083ff2700020020002c
:102050006110b900f9ff370003ff2700f7ff3700d1
:10206000c70ade00f107b200f50fb2000800320027
:10207000e1cf4200020032000170a0002400050000
:10208000810f7000010032000408050044000500c3
:10209000810f700002003a00140005008502e9007b
:1020a0000000400081c04800fcff3b000170a00020
:1020b00024000500020ab900001bb9000200b800a4
:1020c00081004200810043000000060000c0da00e9
:1020d00000000600889fbe008a9fbe0030044200b8
:1020e000b0844a0030054b0090854b006000b10081
:1020f0000898be000a90be000440e10005c8e10057
:1021000006d0e10007d8e10002003100680040007d
:102110001008e8004f05be004f04be000000060096
:10212000889fbe008a9fbe003004be002005be000e
:102130000418540005985c0006185d0007985d00bf
:10214000110020000440e10005c8e10006d0e100d4
:1021500007d8e100010039008000eb001088100072
:102160004f05be004f04be0000000600f487470084
:10217000889fbe008a9fbe008c9fbe008e1f780085
:10218000d0b79f00e1b79f00f2b79f0083bf9f00c9
:102190000605be000404be00cfae97000000eb00b1
:1021a000c0b79f00b0b79f00a0b79f0090b79f0037
:1021b00080b79f00000678004fb0970000014000f4
:1021c0000000e00006003d003c0007000f0747004c
:1021d000450007000f004000beff07000500370064
:1021e000360007000f0747003f0007000f004000c0
:1021f000cbff07004fb797000e00e0000c00350042
:102200005fb29700efb297007fb397008fbb970044
:1022100010002000010020006011b80000027200d0
:102220008182720002037300838373001c00070025
:102230000c06e80001042000810f5600deff3a0082
:102240000e00e00005003d000802be000a03be00cb
:1022500000fe2f000f0040009eff07000d00e00071
:1022600005003a000fb297009fb297002fb3970076
:10227000bfb397000a0007005fb09700efb0970068
:102280007fb197008fb997004f0778004f06be00c7
:102290004f05be004f04be004f01b1000000060014
:1022a000010007000000060094b79f00a5b79f003b
:1022b000b6b79f00c7b79f00000006009fb0970009
:1022c0004f08de0002017000a2b79f000fb0970018
:1022d0004f01de00818040008100710091b79f00b6
:1022e0000efe2f0000000600de0078004f09de0021
:1022f000000040000000710080b79f006fa89700a9
:102300004f01de0081804000010f71000e000700c8
:102310004f3ade000000400004007000e0af9f0074
:10232000090007000402420085824a0006034b00b0
:1023300087834b00dcff07000802be000a03be00d3
:1023400000fe2f00000006001fb29700afb29700fa
:102350003fb39700cfb3970000000600881f7800b6
:1023600018002000881f780080ff07008f87e90091
:102370004f04780000000600801feb007bff070081
:102380008f87e90000000600889fbe008a9fbe007c
:10239000e00f5000e08f5800e00f5900e08f590027
:1023a0000c003d006044b8006055b80000005400c7
:1023b00081805c0002015d0083815d0018002000c7
:1023c0001500070008003d00180007000004eb009e
:1023d000050037000004eb000f00070002003d007d
:1023e0001200070018002000dcff07000800e000d2
:1023f000060032006022b8006033b80000005200ce
:1024000081805a0002015b0083815b004f05be00a2
:102410004f04be0000000600e00f5200e08f5a009b
:10242000e00f5b00e08f5b00000006006044b80036
:102430006055b8000402540085825c0006035d000c
:1024400087835d0000000600889fbe008a9fbe0053
:102450008c1f7800e00f5000e08f5800e00f59000b
:10246000e08f59000d003d006044b8006055b80091
:102470000000540081805c0002015d0083815d00ea
:102480001c0020000820e10009a8e1000ab0e100da
:102490000bb8e1000d003d00080037000006eb001e
:1024a000e00f5200e08f5a00e00f5b00e08f5b000e
:1024b00006003d006044b8006055b80004025400b6
:1024c00085825c0006035d0087835d00aaff07002c
:1024d0000c00e000060032006022b8006033b80053
:1024e0000000520081805a0002015b0083815b0082
:1024f0004f0678004f05be004f04be0000000600e6
:020000040000fa
:102500000a5300006f6300006b6500007420000038
:10251000434f00004e4e000045430000544500006c
:1025200044000000536f0000636b000065740000fe
:10253000204300006f6e00006e65000063740000b1
:10254000696f00006e20000066610000696c000089
:1025500065640000004d00006573000073610000b9
:102560006765000020730000656e000074200000a5
:10257000537500006363000065730000667500001a
:102580006c6c0000793a000020250000730a0000fe
:10259000004d000065730000736100006765000076
:1025a0002072000065630000656900007665000028
:1025b000643a000020250000730a0000204e00004d
:1025c0006f20000062790000746500007320000035
:1025d00052650000637600003a2000002564000088
:1025e0000a000000436f00006e6e0000656300008b
:1025f000746900006f6e0000204300006c6f0000e3
:102600007365000064200000005300006f63000049
:102610006b650000742000005265000063760000c6
:1026200020450000727200006f7200003a20000026
:10263000256400000a000000576900002d660000b4
:10264000692000005354000041540000453a000046
:10265000204300004f4e00004e4500004354000050
:102660004544000020000000576900002d6600006e
:10267000692000005354000041540000453a000016
:102680002044000049530000434f00004e4e00001c
:10269000454300005445000044200000004900006c
:1026a000502000004f62000074610000696e00005d
:1026b00065640000206200007920000044480000aa
:1026c0004350000020530000657200007665000052
:1026d000720000003a3a00003a3a00003a3a00002c
:1026e0003a3a0000204300006f6e00006e65000063
:1026f00063740000696f00006e200000496e0000e6
:10270000666f0000203a00003a3a00003a3a0000b2
:102710003a3a00003a3a00000053000053490000e2
:102720004420000020200000202000002020000085
:102730002020000020200000202000002020000099
:10274000202000003a250000730a00000057000016
:10275000504100002f57000050410000320000009f
:10276000556e00004b4e00004f5700000053000014
:102770006563000075720000697400007920000034
:102780005479000070650000202000002020000027
:1027900020200000202000003a250000730a0000dd
:1027a000005200005253000049200000536900000d
:1027b000676e0000616c00002020000020200000f7
:1027c0002020000020200000202000003a250000ea
:1027d000640a00000049000050200000416400002d
:1027e0006472000065730000732000002020000068
:1027f00020200000202000002020000020200000d9
:102800003a250000642e0000256400002e250000fb
:10281000642e00002564000000460000616900008d
:102820006c65000064200000746f000020690000e7
:102830006e690000746900006c6900007a65000030
:1028400020200000574900002d46000049200000cc
:1028500041540000574900004e430000204400004e
:1028600072690000766500007220000000570000c9
:10287000492d00004649000020530000544100004b
:10288000544500003a200000436f00006e6e0000c7
:1028900065630000746900006e6700002e2e000062
:1028a0002e000000546f0000746100006c70000086
:1028b0006c610000792d00003342000034300000cc
:1028c000003100003233000034350000363700009c
:1028d0003839000000460000616900006c650000a6
:1028e00064200000746f0000207200006571000019
:1028f000756500007374000020610000205700001f
:102900004946000049200000636f00006e6e000021
:1029100065630000746900006f6e00002000000015
:102920000a20000043720000656100007469000025
:102930006e670000205300006f6300006b650000ad
:10294000742e00002e2e0000005300006f63000064
:102950006b65000074200000437200006561000098
:102960007465000064210000212000000043000085
:102970006f6e00006e65000063740000696e0000f9
:1029800067200000746f000020720000656d000079
:102990006f7400006520000073650000727600000f
:1029a000657200002076000069610000207300005d
:1029b0006f6300006b650000743a00002025000082
:1029c000750a0000005300006f6300006b65000093
:1029d00074200000636f00006e6e000065630000ed
:1029e000746900006f6e00002052000065710000e5
:1029f00075650000737400002045000072720000cd
:102a00006f720000005300006f6300006b650000f0
:102a100074200000436f00006e6e000065630000cc
:102a2000746900006f6e00002052000065710000a4
:102a3000756500007374000020530000756300008a
:102a40006365000073660000756c00002e2e0000a8
:102a50002e2000005761000069740000696e0000bc
:102a600067200000736f0000636b00006574000056
:102a7000204300006f6e00006e650000637400006c
:102a8000696f00006e200000537400006174000044
:102a90007573000000460000616900006c7500005d
:102aa00072650000207400006f2000006372000057
:102ab0006561000074650000207400006865000016
:102ac000207300006f6300006b650000740000005d
:102ad00008760000387c00006676000080760000f2
:102ae000bc760000f47600002e7700003a770000f4
:102af0006077000044770000200100000f00000014
:102b000000000000200100000000000000000000a4
:020000040000fa
:102b100000090000121b0000242d0000363f0000b9
:102b2000484100005a5300006c6500007e770000a9
:102b3000191000000b0200003d3400002f26000099
:102b400051580000434a0000757c0000676e000089
:102b5000323b000020290000161f0000040d000079
:102b60007a730000686100005e5700004c45000069
:102b70002b220000393000000f0600001d14000059
:102b8000636a000071780000474e0000555c000049
:102b9000646d0000767f000040490000525b000039
:102ba0002c2500003e370000080100001a13000029
:102bb0007d7400006f660000595000004b42000019
:102bc000353c0000272e000011180000030a000009
:102bd000565f0000444d0000727b000060690000f9
:102be0001e1700000c0500003a33000028210000e9
:102bf0004f4600005d5400006b62000079700000d9
:102c0000070e0000151c0000232a000031380000c8
:102c100041480000535a0000656c0000777e0000b8
:102c2000090000001b1200002d2400003f360000a8
:102c3000585100004a4300007c7500006e67000098
:102c400010190000020b0000343d0000262f000088
:102c5000737a000061680000575e0000454c000078
:102c60003b320000292000001f1600000d04000068
:102c70006a630000787100004e4700005c55000058
:102c8000222b000030390000060f0000141d000048
:102c9000252c0000373e000001080000131a000038
:102ca0006d6400007f760000494000005b52000028
:102cb0003c3500002e270000181100000a03000018
:102cc000747d0000666f000050590000424b000008
:102cd000171e0000050c0000333a000021280000f8
:102ce0005f5600004d4400007b72000069600000e8
:102cf0000e0700001c1500002a23000038310000d8
:102d0000464f0000545d0000626b000070790000c7
:020000040000fa
:102d10001600fa006a034700004b78006c00470079
:102d2000010878006e0047000248780070004700f4
:102d30000488be0074004700030878007400470050
:102d4000100078000000e000ac0032006a0047008c
:102d5000104078000000fb006c00b9008000780093
:102d60004083200000804000100078000000e00058
:102d7000a20032006a004700104078000000fb000b
:102d80006c00b900000078008080e80040832000db
:102d900000804000100078000000e0009700320042
:102da0006a004700104078000000fb006c00b9008a
:102db00000007800e80040004083200000804000d0
:102dc00010407800e14f50008c003a00700047003e
:102dd000301f7800201778006c0047001000780042
:102de00064004000f40047001108780011c0b300ef
:102df000660047000148780064004700f40047007f
:102e0000110878006a004700104078000000fb00bd
:102e10006c00b900000078008080e800408320004a
:102e200000804000900078006400470010007800a7
:102e300081005000680047000108780068004700e2
:102e4000100078000000e0000d0034008040eb002e
:102e500066004700014878006a004700104078008b
:102e60000000fb006c00b900000078008080e800e2
:102e700040832000808040006400470011087800f3
:102e80006a004700104078000000fb006c00b900a9
:102e9000800078004083200000804000100078000f
:102ea000e600470011427800e400470091017800f5
:102eb000000178001e00be00cd2507000004e000e0
:102ec0004d003a006a004700104078000000fb0007
:102ed0006c00b90080007800408320000080400032
:102ee000900078006c00470010007800010878001e
:102ef00064004700900078006c00470010007800e4
:102f00000080e800010878006c004700100078009d
:102f100064004000900078006400470010007800d2
:102f2000808050006c004700100078006400400072
:102f300001087800304080000000e0000800320006
:102f4000334080006c004700100178006e0047009d
:102f5000904078006a0047001040780003000100ac
:102f6000740047009000780064004700100078006b
:102f7000808050007400470001087800640047001a
:102f8000100078008000eb001e0f40005e974800a4
:102f90006a004700104078000000fb006c00b90098
:102fa00000007800e80040004083200000804000de
:102fb000104078000004e0000a003a007400470066
:102fc000100078000000e0000600320014c0b300da
:102fd0008001eb000001eb006000b80084250700d1
:102fe0000600370074004700100078000000e00081
:102ff0007eff3a0001003700000000000080fa0068
:1030000000000600d000fa00840c20000e024200ee
:10301000004a7800a00c20000e0040000108780053
:10302000c00c20000e0040000288be00800c200072
:103030000e0040009040780010c4b30080cf5000d4
:1030400006003200800c20000e0040009040780006
:1030500040c5b30080cf500019003a00700047000f
:103060000042eb004300200000017800c00c20006b
:103070000e0040001000be005d2507000004e000c7
:1030800027023a0071004700904078007400470022
:1030900001487800304080000000e0002202320049
:1030a000334080007000470010407800f400470073
:1030b0000101780011c0b300030001002b023700aa
:1030c000800c20000e0040009040780020c4b30027
:1030d00080cf500019003a00760047000042eb0014
:1030e0004300200000017800c00c20000e004000ca
:1030f0001000be003e2507000004e0001b023a005d
:1031000077004700904078007a0047000148780037
:10311000304080000000e0001402320033408000a4
:103120007600470010407800fa004700010178005f
:1031300021c0b300030001000c023700800c200006
:103140000e0040009040780030c4b30080cf5000a3
:1031500070003a007c0047000042eb00c3002000f2
:1031600000017800c00c20000e0040001000be00de
:103170001f2507000004e000fc013a005002200077
:103180000e004000104078000004e0003f003500d1
:10319000500220000e004000104078008001fb002b
:1031a000400220000e004000104078000000fb00ac
:1031b0006c00b90000007800e80040004083200067
:1031c000008040000000e800104178006c18b90051
:1031d00080007800c0832000008040000000e800ec
:1031e00002487800500220000e0040001040780095
:1031f0000000fb006c00b90080007800c083200054
:103200000080400011c0b300014878005002200047
:103210000e004000104078000000fb00610220001a
:103220008e80400091007800688150006c00b900e9
:1032300080007800a0832000008040000208780011
:10324000204080000000e8002040880020408000ee
:103250000000e00003003a00204080000000e80089
:1032600020408800500220000e00400010407800ee
:103270000000fb00224080006c00b9008000780054
:103280008083200000804000020878005002200067
:103290000e00400090407800800220000e004000a8
:1032a0000148780021002000a00220000e0040000c
:1032b000010878007e00470090007800c0022000de
:1032c0000e00400001087800000220000e004000bf
:1032d0001000be00e20220000e0141000089be0085
:1032e000304080000000e000a00132003340800048
:1032f000400220000e0040001040780081022000b3
:103300008e8040000101780041c0b300030001003d
:1033100096013700800c20000e004000904078009d
:1033200040c4b30080cf500006003200800c200063
:103330000e00400090407800b0c4b30080cf500031
:1033400036003a00a00320000e0040000042eb00cf
:103350004300200000017800c00c20000e00400057
:103360001000be00a22407000004e00070013a0033
:10337000a00320000e00400090407800e0032000f1
:103380000e00400001487800b00320000e0040000d
:1033900090407800f00320000e00400001487800c3
:1033a000b00320000e004000104078000004e00050
:1033b0000d003a00a00320000e00400010407800ed
:1033c0000000fb00c10320008e80400091007800c7
:1033d000688150006c00b90080007800a083200054
:1033e0000080400002087800304080000000e000cb
:1033f0005101320033408000a00320000e00400045
:1034000010407800e10320008e8040000101780028
:1034100051c0b3000300010054013700800c2000ac
:103420000e00400090407800a0c4b30080cf500050
:1034300018003a00400820000e0040000042eb0057
:103440004304200000017800c00c20000e00400062
:103450001000be00662407000004e00043013a00ab
:10346000404080000000e000400132004540800004
:10347000400c20000e0040001000be004408200058
:103480000e0242000001be000400780005000100a9
:1034900036013700800c20000e004000904078007c
:1034a00060c4b30080cf50000c003200800c2000bc
:1034b0000e0040009040780080c4b30080cf5000e0
:1034c00006003200800c20000e0040009040780082
:1034d000d0c4b30080cf500095003a0060c0b30064
:1034e000004f7800800c20000e00400090407800d3
:1034f00080c4b30080cf500002003a0090c0b300f7
:10350000004f7800010120006600470001087800a4
:10351000000420000e0040000042eb00e6004700df
:103520009101780000017800c00c20000e004000de
:103530001000be002e2407000004e00000013a0045
:103540008000eb0068004700010878006a0047002f
:10355000c10420008e8040001148780068004700b8
:10356000e10420008e804000110878006a004700c6
:10357000104078000000fb006c00b900800078006b
:10358000e0832000008040008040eb00014878008c
:103590006c004700810420008e80400011087800f4
:1035a0006e004700a10420008e80400011087800c2
:1035b000200420000e0040009000780080052000cc
:1035c0000e00400001087800400420000e0040007a
:1035d0001000be00a20520000e0141000089be00bf
:1035e0006a004700104078000000fb006c00b90042
:1035f00000007800e400400040832000008040008c
:10360000900078006800470010007800808f50001c
:103610003a003a006c004700100078000000e0001b
:10362000220034006c00470090007800a00c2000bd
:103630000e00400010007800808f50001b00310009
:103640006e004700100078008000eb00c20c2000e4
:103650000e0141001201be000200400083804800bc
:10366000c20c20000e0141000089be006600470028
:10367000ec00470011087800000520000e00400013
:10368000e600470091017800c10c20008e804000c8
:103690001102be001e417800800078006a004700d9
:1036a000104078009afd0700b00037002005200088
:1036b0000e004000ec004700110878008000eb008d
:1036c000000520000e004000010878003040800016
:1036d0000000e0009c003200334080000005200024
:1036e0000e004000000178009e4078006a0047000c
:1036f00010407800030001009c003700660047007e
:1037000090007800a00c20000e004000100078000f
:10371000808f50008e00310014c0b3008001eb0098
:103720000001eb006000b800b12307008f003700f4
:10373000800c20000e0040009040780050c4b30080
:1037400080cf50000c003200800c20000e004000a2
:103750009040780070c4b30080cf50000600320063
:10376000800c20000e00400090407800c0c4b300e0
:1037700080cf500042003a0071c0b3000e00e80054
:1037800001487800800c20000e0040009040780036
:1037900070c4b30080cf500003003a0081c0b30072
:1037a0000e00e80001487800800620000e0040006e
:1037b0000042eb008300200000017800c00c2000d4
:1037c0000e0040001000be00892307000004e00046
:1037d00061003a008000eb000e80e80001087800ec
:1037e00064004700810620008e8040001148780068
:1037f0000e80e800c10620008e804000110878008d
:10380000a00620000e004000900078006006200016
:103810000e00400001087800640047001040780066
:103820000000fb006c00b90000007800e4004000dc
:103830004083200000804000900078000e80e80067
:1038400010007800808f500045003a003040800022
:103850000000e00044003200334080006006200099
:103860000e004000000178000e00e8009040780053
:103870006400470010407800030001003b0037005f
:10388000800c20000e0040009040780020c5b3005e
:1038900080cf500035003a00000720000e004000a5
:1038a00014c0b3004301200000017800c00c2000c8
:1038b0000e0040001000be004d2307000004e00091
:1038c0002a003a00400720000e0040001000be0011
:1038d0000000780060408800604080000000e00048
:1038e0002200320065408000000820000e004000e9
:1038f00010417800800720000e0040001000be003c
:10390000030720008e8141001303be0002427800ad
:103910000001be000600be000500010013003700d4
:103920000000000011003700000000000f00370009
:10393000000000000d003700000000000b00370001
:1039400000000000090037000000000007003700f9
:1039500000000000050037000000000003003700f1
:103960000000000001003700000000000080fa00a5
:10397000000006000000fa000ac8bf000004e000d2
:103980000b003a0040832000420820000300200082
:103990008040eb00d62b07002180210020c0b3001f
:1039a0008223070010c0b3000ae8b7000428ef0024
:1039b0000080fa00000006000000fa0040832000aa
:1039c00042082000030020008040eb00c82b0700c5
:1039d0008000eb0020c0b300742307000628ef002e
:1039e0000828ef000a68ef000080fa0000000600d7
:1039f0000400fa00000f78000e80e800010878004b
:103a00009e007800314088000e80e8009000780029
:103a1000414088000080fa00000006001000fa0013
:103a2000ec014700800978006e00470001487800eb
:103a30006f0047000248780000c0eb00004f78009c
:103a40006c00470010007800e20f50009e003a0022
:103a50006e00470010407800e14f50002e003a0001
:103a60008040eb000e00e800014878002500370098
:103a700064004700e1802000914078000148780010
:103a80000ec8bf000080fb006c00b9008000780009
:103a900040832000808040000e80e800010878000c
:103aa0000ec8bf000080fb008000e800700020000e
:103ab00000017800110009008200d8008000fd009c
:103ac000004078000ee8b7000e80e8001000780093
:103ad00068004000104078000004e00004003a0054
:103ae00064004700104f78000000000043003700da
:103af0000e00e800104078008040e8000e00e8006a
:103b0000014878000e00e80010407800e64f5000b1
:103b1000d7ff3600390037006e00470010407800ac
:103b2000e24f500035003a008188200066004700cf
:103b3000010878008040eb000e00e80001487800a2
:103b40002a00370064004700f1802000914078008f
:103b5000014878000fc8bf000080fb006c00b9006e
:103b600000007800e6004700910078008080400067
:103b70000e80e800010878000fc8bf000080fb003d
:103b80008000e80030002800008060000000e000b5
:103b900004003d000000e900c1ff2f00008070001c
:103ba0000000e800004078000fe8b7000e80e80051
:103bb0001000780068004000104078000004e00029
:103bc00005003a006400470010407800674040005c
:103bd000004f7800090037000e00e8001040780020
:103be0008040e8000e00e800014878000e00e80080
:103bf00010407800e34f5000d2ff36001e4078009e
:103c00000004e000300035000e80e800100078006d
:103c1000c2002000030020008040eb00342b07008e
:103c20000e80e8001000780011c0b300680040006a
:103c300001487800204080000000e8002040880013
:103c4000204080000000e00003003a002040800097
:103c50000000e80020408800214080000e80e8003d
:103c60001000780064004000010878006f004700f1
:103c7000104078000080fb00610060000040780088
:103c80000004e00010003200680047001e48780081
:103c90000e80e8001000780011c2b30069004000f7
:103ca00001487800680047000003eb008002eb0049
:103cb0000002eb00430020000001780001c5b300c2
:103cc00020c0b300cf1f07001e4078000080fa001c
:103cd000000006001400fa00ee0147008049780059
:103ce0007000470001087800720047000248780021
:103cf000a0cfb300004f780070004700100078009c
:103d00000000e0004c0032006e00470010407800d8
:103d10000004e000480035006e00470010407800c5
:103d20000000fb006c00b90000007800e8004000d3
:103d3000408320000080400010407800e14f500098
:103d40003d003a0072004700104078000004e00097
:103d50003900320011c4b3000e00e80001487800b9
:103d60006e004700104078000000fb006c00b900b6
:103d700000007800e8004000408320000080400000
:103d80000000e800104078000080fb006100600047
:103d9000004078000004e0000300320041c5b30099
:103da0000e00e800014878006a004700ee00470076
:103db0001148780070004700900078000e80e800fd
:103dc0008200200003002000872a07006e004700c1
:103dd000104078000000fb006c00b9000000780083
:103de000e400400040832000008040009000780004
:103df0006c004700010878000e80e8000003eb002b
:103e00008002eb000002eb00c300200000017800fc
:103e10000e00e8009040780020c0b300791f070032
:103e2000004f78001e4078000004e00002003200dd
:103e300070cfb300004f78001e4078000080fa0079
:103e4000000006000800fa006601470000497800fb
:103e50006700470001487800a0cfb300004f78000a
:103e600066004700104078000004e0002b00350099
:103e700066004700104078000000fb006c00b900ad
:103e800000007800e80040004083200000804000ef
:103e900010407800e14f500020003a000e80e8000a
:103ea000e60047001148780063004700e70047003c
:103eb0001148780066004700104078000000fb00c1
:103ec0006c00b90000007800e4004000408320004e
:103ed00000804000900078006400470001087800ee
:103ee0000e80e8000003eb008002eb000002eb0014
:103ef000430020000001780021c4b30020c0b300bb
:103f0000401f0700004f78001e4078000004e000ca
:103f10000200320070cfb300004f78001e407800de
:103f20000080fa00000006000800fa008e81e80018
:103f30008049780064004700010878006600470067
:103f400002087800a0cfb300004f78000e80e80090
:103f5000104078000004e0000d0035000e80e800fd
:103f6000104078000000fb006c00b90000007800f1
:103f7000e8004000408320000080400010407800ae
:103f8000e14f500002003a000040eb00004f780083
:103f90001e4078000080fa00000006001400fa00bd
:103fa000ee01470080497800700047000108780062
:103fb0007200470002487800a0cfb300004f78009d
:103fc0006e004700104078000004e0005800350003
:103fd00070004700100078000000e000540032003c
:103fe0006e004700104078000000fb006c00b90034
:103ff00000007800e800400040832000008040007e
:1040000010407800e14f500049003a00720047002c
:10401000104078000004e0004500320041c4b300c5
:104020000e00e800014878006e004700104078005c
:104030000000fb006c00b90000007800e8004000c0
:1040400040832000008040000000e800104078001d
:104050000080fb0061006000004078000004e00088
:104060000f003200b1c4b3000e00e8000148780030
:104070006e004700104078000000fb006c00b900a3
:1040800000007800e80040004083200000804000ed
:104090000000e800904078006b004700014878007d
:1040a0006a004700ee0047001148780070004700a2
:1040b000900078000e80e8008200200003002000bd
:1040c000c92907006e004700104078000000fb007f
:1040d0006c00b90000007800e4004000408320003c
:1040e00000804000900078006c00470001087800d4
:1040f0000e80e8000003eb008002eb000002eb0002
:10410000c3002000000178000e00e8009040780015
:1041100020c0b300bb1e0700004f78001e4078008f
:104120000004e0000200320070cfb300004f7800be
:104130001e4078000080fa00000006001e00fa0011
:1041400076024700004a78007800470001087800ae
:104150007a004700020878007c00470003087800d6
:10416000a0ff2f00000f7800760047001040780075
:104170000004e0006500350078004700100078007a
:104180000000e000610032007a00470090007800f3
:1041900080572000808f50005c003e007600470072
:1041a000104078000000fb006c00b90000007800af
:1041b000e80040004083200000804000104078006c
:1041c000e14f500051003a0051c4b3006400470071
:1041d00001487800010520000e80e8000108780001
:1041e00066004700f6004700114878006800470065
:1041f000fa00470011087800760047001040780068
:104200000000fb006c00b90000007800e4004000f2
:10421000408320000080400090007800720047003a
:10422000010878007600470010407800e64f500003
:1042300003003400410420000e80e80001087800eb
:1042400076004700104078000000fb006c00b900c9
:1042500000007800e800400040832000008040001b
:104260000000e800104078000080fb006100600062
:10427000004078000004e0000d003200c1c4b3002b
:10428000640047000148780076004700104078003d
:104290000000fb006c00b90000007800e600400060
:1042a00040832000808040000e80e80011087800e4
:1042b0007800470090017800e6004700640047005e
:1042c000104078000074a0000e81e800120378000e
:1042d0007a0147009202780003027800030120006f
:1042e000010178008040780020c0b300451e07001f
:1042f0000000fb00000f78001e0078000000e000c6
:104300000200320020ff2f00000f78001e0078000e
:104310000080fa00000006002000fa007403470045
:10432000004b7800760047000108780078004700cd
:10433000020878007a004700030878007c004700f4
:10434000040878007e00470005487800a0ff2f0091
:10435000000f780074004700104078000004e0006f
:104360006000350076004700100078000000e00093
:104370005c003200780047009000780080572000f1
:10438000808f500057003e007400470010407800b6
:104390000000fb006c00b90000007800e80040005d
:1043a000408320000080400010407800e14f500022
:1043b0004c003a0074004700104078000000fb00f9
:1043c0006c00b90000007800e80040004083200045
:1043d00000804000104078000004e00041003200fe
:1043e0006400470002012000030020008040eb0031
:1043f0003f29070064004700f40047001148780097
:1044000066004700f8004700110878007400470074
:10441000104078000000fb006c00b900000078003c
:10442000e4004000408320000080400090007800bd
:1044300070004700010878007c00470010007800f9
:104440000000e000140032000e80e800fc0047008d
:10445000110878000e80e8001000780090007800c5
:1044600068004700010878000e80e800100078001e
:104470000080e800900078006a004700010878009a
:104480000e80e80010007800640040001000be00bc
:104490006c0147000089be007600470010017800db
:1044a0006400470046042000f800470091027800ad
:1044b00002027800030120000001780071ccb300f3
:1044c00020c0b300cf1d07000000fb00000f7800e4
:1044d0001e0078000000e0000200320020ff2f00e4
:1044e000000f78001e0078000080fa00000006002f
:1044f0001600fa00ec014700804978006e00470082
:104500000108780070004700020878007200470038
:104510000488be00a0ff2f00000f78006c00470049
:10452000104078000004e0007e0035006e00470077
:10453000100078000000e0007a00320070004700b0
:10454000100078000000e000760032006c004700a8
:10455000104078000000fb006c00b90000007800fb
:10456000e8004000408320000080400010407800b8
:10457000e14f50006b003a000000eb00000f7800a4
:104580006c004700104078000000fb00ee00470080
:10459000110178006c00b900800078004083200091
:1045a00000804000020878006c004700104078004e
:1045b0000000fb006c00b9008000780060832000e0
:1045c00000804000f0004700110878006c004700b0
:1045d000104078000000fb006c00b900000078007b
:1045e000ea00400040832000008040001040780036
:1045f0000004e0004b003a0061c4b3000e80e80004
:10460000014878006c004700104078000000fb0073
:104610006c00b90080007800e0832000008040003a
:1046200011c0b300014878006c00470010407800ca
:104630000000fb006c00b90000007800e8004000ba
:1046400040832000008040000000e8001040780017
:104650000080fb0061006000004078000004e00082
:1046600003003200d1c4b3000e80e8000148780096
:10467000720047001000be00e00f5000e08f5800ad
:1046800005003a000080eb008080eb0064014700e9
:104690000089be000400370064004700f2004700b4
:1046a000311878002110780068004700ec004700be
:1046b000114878006c004700104078000000fb00b3
:1046c0006c00b90000007800e40040004083200046
:1046d00000804000900078006a00470001087800e0
:1046e000640047000003eb008002eb000002eb00d7
:1046f00083002000000178000e80e80090407800e0
:1047000020c0b3003f1d07000000fb00000f780031
:104710001e0078000000e0000200320020ff2f00a1
:10472000000f78001e0078000080fa0000000600ec
:104730000800fa00e600470080487800a0cfb300e8
:10474000004f780066004700104078000004e00049
:104750005b00350066004700104078000000fb0059
:104760006c00b90000007800e800400040832000a1
:104770000080400010407800e14f500050003a00a7
:1047800091c4b3000e00e800014878000e80e800f4
:10479000e6004700114878006600470010407800a6
:1047a0000000fb006c00b90000007800e40040004d
:1047b00040832000008040009000780064004700a3
:1047c0000108780066004700104078000000fb00f8
:1047d0006c00b90080007800c08320000080400099
:1047e0008040eb00014878006600470010407800e8
:1047f0000000fb006c00b90080007800808320007e
:10480000008040008000eb0001087800660047004f
:10481000104078000000fb006c00b9000000780038
:10482000e800400040832000008040000000e800d5
:10483000104078000080fb006100600000407800bc
:104840000004e00003003200e1c4b3000e00e80001
:10485000014878000e80e8000003eb008002eb00c6
:104860000002eb0043002000000178000e00e80089
:104870009040780020c0b300e21c0700004f780091
:104880001e4078000004e0000200320070cfb30048
:10489000004f7800428320006600470010407800f7
:1048a0000000fb006c00b90000007800000041002f
:1048b000c2002000030020008040eb000c2807000d
:1048c0001e4078000080fa00000006001400fa0084
:1048d000ea014700804978006c0047000108780031
:1048e0006e00470002087800700047000488be0090
:1048f0000000eb00000f78006a00470010407800cd
:104900000004e000740035006c00470010007800df
:104910000000e000700032006e00470010007800d8
:104920000000e0006c0032006a0047001040780090
:104930000000fb006c00b90000007800e8004000b7
:10494000408320000080400010407800e14f50007c
:1049500061003a006a004700104078000000fb0048
:104960006c00b90000007800e8004000408320009f
:1049700000804000104078000004e0005c0032003d
:104980000000eb00000f78006a004700104078003c
:104990000000fb00ec004700110178006c00b9003a
:1049a00080007800408320000080400002087800ea
:1049b0006a004700104078000000fb006c00b9005e
:1049c000800078006083200000804000ee004700f7
:1049d000110878006a004700104078000000fb00d2
:1049e0006c00b90000007800ea004000408320001d
:1049f00000804000104078000004e00039003a00d8
:104a00006a004700104078000000fb006c00b9000d
:104a100080007800e08320000080400011c0b300d7
:104a200001487800700047001000be00e00f500001
:104a3000e08f580005003a000080eb008080eb001a
:104a40000e81e8000089be00040037000e80e800f7
:104a5000f000470031187800211078006600470008
:104a6000ea004700114878006a00470010407800cb
:104a70000000fb006c00b90000007800e40040007a
:104a800040832000008040009000780068004700cc
:104a9000010878000e80e8000003eb008002eb00c4
:104aa0000002eb00830020000001780081c4b30005
:104ab00020c0b300531c07000000fb00000f78006b
:104ac0001e0078000000e0000800320020ff2f00e8
:104ad000000f780006003700a0ff2f00000f7800bd
:104ae0000300370000000000010037000000000054
:104af0001e0078000080fa00000006000e00fa0098
:104b0000ec004700800878006000b80064014700ae
:104b10000089be000040eb00004f78008040eb00b1
:104b20000e00e800014878004e0037008040eb009e
:104b30000e80e800014878006c0047001000780003
:104b40009040780063004700014878000e80e8003c
:104b5000104078008040e8000e80e80001487800ae
:104b60000e80e80010407800e44f5000020036004c
:104b70006000b800460037006300470090407800ae
:104b8000e0c2b30080cf5000040032006300470051
:104b9000104078000004e00009003a000e00e80030
:104ba000104078000080fb000000470068004000d3
:104bb0001e4878000040eb00004f780016003700d8
:104bc0006300470090407800f0c2b30080cf5000ef
:104bd0000f003600630047009040780090c3b30098
:104be00080cf50000a003e001e4078006a00b900e5
:104bf0000000780080407800630047001040780093
:104c000080c0400000cdb30000cf4000020037005c
:104c10006000b8001e0037006c00470010007800ec
:104c20008000e8006c00470001087800630047003e
:104c300090407800e0c2b30080cf50000400320002
:104c400063004700104078000004e000baff3a001b
:104c50000e00e800104078008040e8000e00e800f8
:104c6000014878000e00e80010407800e34f500043
:104c7000aeff360064004700e80047004200200015
:104c800003002000d8260700640047001000be0083
:104c90000080fa00000006000400fa008e80e800a0
:104ca00080087800a0cfb300004f78000e80e800a5
:104cb000100078002c2707008e00e800804878005c
:104cc0000e00e8009040780000c4b30080cf500090
:104cd0000e003e000e00e800104078000080fb004f
:104ce0000000e8000003eb008002eb000002eb0094
:104cf000800178000e80e80010017800a1c4b300a4
:104d000020c0b300bf1b0700004f78001e40780092
:104d10000080fa00000006005800fa002405200078
:104d20000e024200004a7800300520000e004000cc
:104d300001487800400520000e004000020878007d
:104d4000600520000e00400003087800a0cfb300eb
:104d5000004f7800200520000e0040001040780031
:104d6000e64f500017013c00200520000e004000d7
:104d7000104078000000fb006c00b90000007800d3
:104d8000e800400040832000008040000000e80070
:104d9000104078000080fb00610060000040780057
:104da0000004e00007013200300520000e00400042
:104db00010407800e14f50003b003a0040052000d1
:104dc0000e004000900078000e80e8001108780086
:104dd0000e80e800100078000000e00018003200ab
:104de000200520000e004000104078008001fb00ec
:104df000200520000e004000104078000000fb005d
:104e00006c00b90000007800e800400040832000fa
:104e1000008040000000e800104078000041780069
:104e20000214a0006c18b90080007800c083200034
:104e3000008040000000e8000248780017003700ba
:104e4000200520000e004000104078008001fb008b
:104e5000200520000e004000104078000000fb00fc
:104e60006c00b90000007800e8004000408320009a
:104e7000008040000000e800104078000041780009
:104e80000214a1006c18b90080007800c0832000d3
:104e9000008040000000e800024878000040eb007d
:104ea000004f7800c7003700300520000e0040009a
:104eb00010407800e34f50003b003a0040052000ce
:104ec0000e00400090007800640047001108780050
:104ed00064004700100078000000e0001800320075
:104ee000200520000e004000104078008001fb00eb
:104ef000200520000e004000104078000000fb005c
:104f00006c00b90000007800e800400040832000f9
:104f1000008040000000e800104078000041780068
:104f20000244a0006c18b90080007800c083200003
:104f3000008040000000e8000248780017003700b9
:104f4000200520000e004000104078008001fb008a
:104f5000200520000e004000104078000000fb00fb
:104f60006c00b90000007800e80040004083200099
:104f7000008040000000e800104078000041780008
:104f80000244a1006c18b90080007800c0832000a2
:104f9000008040000000e800024878000040eb007c
:104fa000004f780087003700300520000e004000d9
:104fb00010407800e44f50003b003a0040052000cc
:104fc0000e0040009000780066004700110878004d
:104fd00066004700100078000000e0001800320072
:104fe000200520000e004000104078008001fb00ea
:104ff000200520000e004000104078000000fb005b
:105000006c00b90000007800e800400040832000f8
:10501000008040000000e800104078000041780067
:105020000264a0006c18b90080007800c0832000e2
:10503000008040000000e8000248780017003700b8
:10504000200520000e004000104078008001fb0089
:10505000200520000e004000104078000000fb00fa
:105060006c00b90000007800e80040004083200098
:10507000008040000000e800104078000041780007
:105080000264a1006c18b90080007800c083200081
:10509000008040000000e800024878000040eb007b
:1050a000004f780047003700300520000e00400018
:1050b00010407800e24f500042003a0060052000a6
:1050c0000e00400090007800f0032000808f500018
:1050d0003c003e0068004700410520008e804000f3
:1050e000110878006a004700210520008e804000ea
:1050f00011487800200520000e0040001040780084
:105100000000fb006c00b90000007800e4004000e3
:105110004083200000804000900078006c00470031
:10512000010878006b004700310520008e804000a8
:1051300011487800600520000e0040001000780043
:105140008000eb006e0147000089be006a00470046
:10515000680040000204200003002000e80047002f
:1051600091007800a02507006a0047000003eb00cb
:105170008002eb000002eb008304200000017800b5
:1051800011c5b30020c0b3009e1a0700e34f4000d2
:105190000a003a006a0047000003eb008002eb00bf
:1051a0000002eb00830420000001780011cdb30061
:1051b00020c0b300931a0700004f78000040eb00b6
:1051c000004f78001e4078000080fa0000000600c2
:1051d0001200fa00ea024700804a78006b0047009c
:1051e000014878006c004700024878006e004700d4
:1051f000030878007000470004087800a0cfb300cf
:10520000004f78006a004700104078000004e0007a
:10521000470035006e004700100078000000e000f5
:10522000430032006a004700104078000000fb0095
:105230006c00b90000007800e800400040832000c6
:105240000080400010407800e14f500038003a00e4
:105250006b00470010407800e24f50000b003a000e
:1052600070004700900178006e0047001001780040
:105270006c004700904078006a00470010407800ba
:10528000a5fe0700004f780029003700f1c4b300e5
:105290000e00e8000148780067004700ec00470076
:1052a0001148780066004700ea004700114878007e
:1052b0006e004700100078001000be000e81e8006c
:1052c0000089be006a004700104078000000fb0023
:1052d0006c00b90000007800e4004000408320002a
:1052e00000804000900078006800470001087800c6
:1052f0000e80e8000003eb008002eb000002eb00f0
:1053000083002000000178000e00e8009040780043
:1053100020c0b3003b1a0700004f78001e40780001
:105320000004e0000200320070cfb300004f7800ac
:105330001e4078000080fa00000006000800fa0015
:10534000004f78000e00e800014878000e80e80069
:1053500002487800640047000308780066004700b0
:10536000040878000040eb000080fa00000006000e
:105370001600fa006e024700008abe007200470065
:1053800002487800740047000308780010cfb3008b
:10539000004f78006e0047001000be00e00f500084
:1053a000e08f58001d0032007400470010007800a4
:1053b0000000e00019003200110020006a004700e0
:1053c000010878000e80e800ee00470031187800f0
:1053d000211078007400470010007800cf80de00b4
:1053e000660147000089be006c004700f2004700dc
:1053f000114878000e80e8000003eb008002eb000b
:105400000002eb00c30020000001780021c5b300ba
:1054100020c0b300fb190700004f78001e40780041
:105420000080fa00000006000600fa00e4004700d1
:105430008008780064004700100078008000eb00ce
:10544000008fbe000e0078000003eb008002eb002e
:105450000002eb00430020000001780051c5b300ba
:1054600020c0b300e71907000080fa000000060022
:10547000a600fa00e40920000e024200004a78006b
:10548000000a20000e00400001087800200a2000d9
:105490000e0040000288be00e00920000e0040001f
:1054a00090407800c0c2b30080cf500013003a0093
:1054b000680047000042eb00430020000001780034
:1054c000200a20000e0040001000be00481c07000b
:1054d0000004e00057013a00e04080000000e000d6
:1054e00054013200e24080006800470080007800ec
:1054f000c0c2b300020001004e013700e0092000e5
:105500000e00400010407800fb4f500013003a009e
:105510006c0047000042eb0083002000000178008f
:10552000200a20000e0040001000be00301c0700c2
:105530000004e0003f013a00e04080000000e0008d
:105540003c013200e24080006c004700800078009f
:10555000b0c1b3000200010036013700e0092000ad
:105560000e00400010407800e64f500015003a0051
:10557000a00320000e00400014c0b300030320006d
:1055800000017800200a20000e0040001000be003c
:10559000171c07000004e00026013a00e0408000ec
:1055a0000000e00023013200e2408000a003200060
:1055b0000e0040008000780060c0b30002000100cf
:1055c0001c013700e00920000e0040001040780068
:1055d000ee4f500017013200e00920000e0040009d
:1055e0009040780020c3b30080cf500013003a00f1
:1055f000740047000042eb004301200000017800e6
:10560000200a20000e0040001000be00f81b07001a
:105610000004e00007013a00e04080000000e000e4
:1056200004013200e24080007400470080007800ee
:1056300020c3b30002000100fe003700e009200093
:105640000e00400090407800f0c2b30080cf5000c0
